:020000040000FA
:060000008EEF05F0120076
:020006001200E6
:0600080016EF02F01200E9
:02000E000200EE
:10001000530B00008D0000000C000000460B000098
:08002000800000000D0000004B
:08002800800EC76E280EC66EA3
:10003000C56A130EC86E1200D9CFE6FFE1CFD9FF13
:100040001F0EC51403E1C750040B01E0F9D7C580AA
:10005000C5B0FED7FE0EDB50C96EC7B0FED7C5BC1B
:10006000FED71F0EC51403E1C750040B01E0F9D7FA
:10007000C584C5B4FED79E96000E00D0E552E7CFEA
:10008000D9FF1200D9CFE6FFE1CFD9FF060EE12656
:10009000040EDB6A0A0EF36E050EF3CFDBFFFE0ED5
:1000A000DBCFE6FFC7EC04F0E552E76E040EE7CFC6
:1000B000DBFF050EDB06040EDB500EE0050EDBCF8A
:1000C00004F0000EE76E0418E8AE02D0043403D04A
:1000D000E750D8800454E3E30A0EF36E050EF3CF25
:1000E000DBFFFD0EDBCFE6FFFE0EDBCFE6FF1AECFB
:1000F00003F0E552E552020EF3CFDBFF030EF4CF1F
:10010000DBFF050EDB06030EDB500EE0050EDBCF3A
:1001100004F0000EE76E0418E8AE02D0043403D0F9
:10012000E750D8800454DDE3030EDB5002E0DF68C3
:1001300006D0020EDB50E76E010EE7CFDBFF0A0EA2
:10014000F36E050EF3CFDBFFFD0EDB28E66EFE0E31
:10015000DBCFE6FF1AEC03F0E552E552020EF3CFD7
:10016000DBFF030EF4CFDBFF050EDB06030EDB50D7
:100170000EE0050EDBCF04F0000EE76E0418E8AECB
:1001800002D0043403D0E750D8800454DDE3030EDA
:10019000DB5003E0010EDB6803D0020EDB50DF6EA4
:1001A000DECF04F0DDCF05F004C0F3FF05C0F4FF9F
:1001B00000D0060EE15C02E2E16AE552E16EE55232
:1001C000E7CFD9FF1200D9CFE6FFE1CFD9FF020E6A
:1001D000E126DF6ADE520A0EDD6EFE0EDBCFE6FFA1
:1001E000C7EC04F0E552DF6E010EDB06DF500EE0D7
:1001F000010EDBCF04F0000EE76E0418E8AE02D06B
:10020000043403D0E750D8800454E7E3DE520A0EEA
:10021000DD6EFD0EDBCFE6FFE66AFE0EDBCFE6FF0E
:100220007AEC04F0E552E552E552DF6E010EDB0692
:10023000DF500EE0010EDBCF04F0000EE76E041875
:10024000E8AE02D0043403D0E750D8800454E1E390
:10025000020EE15C02E2E16AE552E16EE552E7CFAF
:10026000D9FF1200D9CFE6FFE1CFD9FFE652DF6A0E
:100270001F0EC51403E1C750040B01E0F9D7C58078
:10028000C5B0FED7FE0EDB50C96EC7B0FED7C5BCE9
:10029000FED71F0EC51403E1C750040B01E0F9D7C8
:1002A000DFCF04F0056A04BE0568FC0EDB500424B1
:1002B000E96EFD0EDB500520EA6EEF50C96EC7B047
:1002C000FED7C5BCFED7DF50DF2A046E056A04BE28
:1002D0000568FC0EDB500424E96EFD0EDB500520A2
:1002E000EA6EEF50D6E11F0EC51403E1C750040BB0
:1002F00001E0F9D7C584C5B4FED79E96000E00D0A4
:10030000E552E552E7CFD9FF1200D9CFE6FFE1CFA2
:10031000D9FFE652DF6A1F0EC51403E1C750040B74
:1003200001E0F9D7C580C5B0FED7FE0EDB28C96E47
:10033000C7B0FED7C5BCFED71F0EC51403E1C7501A
:10034000040B01E0F9D7C586C7A0FED7DFCF04F0C4
:10035000056A04BE0568FC0EDB500424E96EFD0E40
:10036000DB500520EA6EC9CFEFFFC95002E0C59A05
:1003700001D0C58AC588C5B8FED7DF50DF2A046E14
:10038000056A04BE0568FC0EDB500424E96EFD0E10
:10039000DB500520EA6EEF50CFE11F0EC51403E1DC
:1003A000C750040B01E0F9D7C584C5B4FED79E96AB
:1003B000000E00D0E552E552E7CFD9FF1200D9CFA9
:1003C000E6FFE1CFD9FFE652DF6A1F0EC51403E155
:1003D000C750040B01E0F9D7C580C5B0FED7FE0EAB
:1003E000DB50C96EC7B0FED7C5BCFED71F0EC51403
:1003F00003E1C750040B01E0F9D7FD0EDB50C96ED5
:10040000C7B0FED7C5BCFED71F0EC51403E1C75049
:10041000040B01E0F9D7C584C5B4FED79E96DF5022
:0C04200000D0E552E552E7CFD9FF1200F2
:04042C00DACFE4FF40
:10043000E2CFDAFFE9CFE4FFEACFE4FFF6CFE4FF53
:10044000F7CFE4FFF5CFE4FFF3CFE4FFF4CFE4FF11
:10045000FACFE4FF00EE00F0020EE80403E3EECF73
:10046000E4FFFBD700EE04F0020EE80403E3EECF56
:10047000E4FFFBD7E6529EA243D09E92640E000199
:10048000955D04E10001956BC28202D00001952BBD
:100490000A0E0001975D1FE1000189051CE10001C2
:1004A000976B020EE66EE00EE66E42EC00F0E5524F
:1004B000E552F3CFAAF0E66AE00EE66EE3EC00F058
:1004C000E552E552510EE66EE00EE66EE3EC00F00A
:1004D000E552E55202D00001972B00019851000827
:1004E0000FE20001982B00019851026E036A033459
:1004F00004E20250C808000E035402E20001986BA7
:100500009E50100B04E09D50100B01E09D989EAC96
:1005100044D09E9CC4CFA5F000019651EA6A8D0F8D
:10052000E96E000EEA22A5C0EFFF0001962B000144
:10053000070E96170001A36BA46B0001A96B080EB0
:100540000001A95D13E20001A951EA6A8D0FE96E6D
:10055000000EEA22EF50026E036A02500001A32748
:1005600003500001A4230001A92BE9D7A3C002F086
:10057000A4C003F0030ED89003320232E804FBE17A
:1005800002C0A3F003C0A4F00001960EA35D000E0C
:10059000A45901E28A8AAAC08AF0F2A227D0F29274
:1005A0000001985123E10001010E986FA20EE66E42
:1005B0001CEC00F0E552000901E0F8D7A60EE66E4B
:1005C000000EE66EA20EE66E85EC01F0E552E552F5
:1005D000E552330E0001A75D09E10001895104E1F4
:1005E0000001010E896F02D00001896BE55200EE17
:1005F00005F0020EE80403E3E5CFEDFFFBD700EEC4
:1006000001F0020EE80403E3E5CFEDFFFBD7E5CFF1
:10061000FAFFE5CFF4FFE5CFF3FFE5CFF5FFE5CF38
:10062000F7FFE5CFF6FFE5CFEAFFE5CFE9FFE5CF3E
:04063000DAFF1100DC
:0C063400D9CFE6FFDACFE6FFE1CFD9FF17
:10064000E2CFDAFF9CEC05F0C580C5A003D0FDD752
:10065000C5B0FED7A1B63BD0FD0E57D804E0C58487
:10066000C5B4FED71ED0C5BC3DD0FC0E4ED804E0AC
:10067000C584C5B4FED715D0C5BC2FD0C582C5A2D0
:1006800003D0FDD7C5B2FED7A1B621D0FD0EDB2821
:10069000E66E45EC05F0E552000905E0C584C5B4F9
:1006A000FED7FD0E23D0C5BC14D0C586C5B6FED777
:1006B000C58AC588C5A803D0FDD7C5B8FED7C584EF
:1006C000C5A403D0FDD7C5B4FED7A1A612D0F36848
:1006D0000ED0C584C5B4FED703D0C584C5B4FED73B
:1006E000FE0E04D0C584C5B4FED7FE0EF36EF468CA
:1006F00006D0C950046E056AF36E05C0F4FFE552DA
:10070000E5CFDAFFE7CFD9FF1200DBCFE6FF45ECFC
:0807100005F0E552000912009A
:080718008F0ED3147009D36E9B
:10072000939A93808182929C929E30D814D807D855
:1007300014EC00F0F19CF288F28CF28E1200948C92
:10074000B896AC94AC98B06A190EAF6EAB8EAC8A0A
:100750009D889E981200939AF00EC1140C09C16EE8
:10076000CF0EC1140009C16EF80EC0140109C06E8D
:10077000C70EC0141809C06EC30EC2140809C26E99
:10078000C09EC2809E9C9D8CF28C12009492949488
:10079000CA827C0ECB6EBE6ABB6ABD98BD9ABA98FF
:1007A000BA9ABD86BD84BA86BA84870ECA1448092F
:0A07B000CA6ECA849D829F82120067
:0607BA000E0EF66E000EAB
:1007C000F76E000EF86E00010900F5509E6F0900EB
:1007D000F5509F6F03E19E6701D03DD00900F550B1
:1007E000996F0900F5509A6F0900F5509B6F090049
:1007F0000900F550E96E0900F550EA6E090009009C
:100800000900F5509C6F0900F5509D6F0900090023
:10081000F6CFA0F0F7CFA1F0F8CFA2F099C0F6FF85
:100820009AC0F7FF9BC0F8FF00019C5302E19D5363
:1008300007E00900F550EE6E9C07F8E29D07F9D736
:10084000A0C0F6FFA1C0F7FFA2C0F8FF00019E07FD
:08085000000E9F5BBFD71200F0
:080858008CEC03F0800EE66E4B
:10086000000EE66E18EC05F0E552E55200018A1D17
:10087000E66E400EE66EDFEC01F0E552E552000157
:10088000890532E1020E00018B5D0CE10001AA51E5
:10089000320805E28CC0BEFF8CC0BBFF02D0BE6A2E
:1008A000BB6A21D00001AA51280814E20001AA5114
:1008B000046E056AD890055004E6960E045C000E9E
:1008C000055808E20001010E8B6F8CC0BEFF8CC082
:1008D000BBFF09D000018B0506E10001020E8B6F02
:1008E000BE6ABB6A00D004D0BE6ABB6A00018A6BD4
:0408F000BDD712005E
:0C08F400D9CFE6FFDACFE6FFE1CFD9FF55
:10090000E2CFDAFF9CEC05F0C580C5A003D0FDD78F
:10091000C5B0FED7A1B62BD0FD0E32D804E0C584F9
:10092000C5B4FED711D0C5BC15D0FC0E29D804E043
:10093000C584C5B4FED708D0C5BC08D0FB0E20D8EE
:100940000EE0C584C5B4FED7FD0E14D0C584C5B471
:10095000FED703D0C584C5B4FED7FE0E0BD0C58428
:10096000C5A403D0FDD7C5B4FED7A1A602D0FF0E03
:1009700001D0000EE552E5CFDAFFE7CFD9FF120034
:0E098000DBCFE6FF45EC05F0E5520009120062
:02098E00D9CFBF
:10099000E6FFDACFE6FFE1CFD9FFE2CFDAFF9CEC4A
:1009A00005F0C580C5A003D0FDD7C5B0FED7A1B660
:1009B0001FD027D804E1C584C5B4FED70FD0C5AC7D
:1009C0000FD0C582C5A203D0FDD7C5B2FED7A1B650
:1009D0000FD017D8F4E1C584C5B4FED7FD0E0BD0F7
:1009E000C584C5A403D0FDD7C5B4FED7A1A602D047
:1009F000FF0E01D0000EE552E5CFDAFFE7CFD9FFB9
:100A00001200FD0EDBCFE6FF45EC05F0E552FF08D6
:020A10001200D2
:0E0A1200D9CFE6FFE1CFD9FF9DB8FED7FE0E8B
:100A2000DB50AD6E9EA8FED7E552E7CFD9FF12008E
:100A3000D9CFE6FFE1CFD9FF0001A96B0001A95191
:100A4000E76EFD0EDBCFE9FFFE0EDBCFEAFFE750DE
:100A5000E926000EEA22EF5014E00001A951E76EEA
:100A6000FD0EDBCFE9FFFE0EDBCFEAFFE750E92604
:100A7000000EEA22EF50E66ECCDFE5520001A92B12
:0A0A8000DDD7E552E7CFD9FF1200E1
:060A8A00D9CFE6FFDACF30
:100A9000E6FFE1CFD9FFE2CFDAFFFD0EDB50C96EF2
:100AA000C6AE02D0FF0E24D00F0EC61408080FE009
:100AB0000F0EC6140B080BE0C6889EA6FED7C750C3
:100AC000040B03E1C750010B10E0000E11D00F0E14
:100AD000C614080804E00F0EC6140B0809E1C7B0DD
:100AE000FED79CEC05F0C5AC02D0FE0E01D0000E86
:0C0AF000E552E5CFDAFFE7CFD9FF120096
:040AFC00000EF36E87
:100B000000EE00F0060E01D81200EA6002D0EE6A94
:0C0B1000FCD7F350E9601200EE6AFCD73D
:040B1C0015EE00F0E2
:100B200025EE00F0F86A019CDDEC03F003EC00F028
:080B30002CEC04F0FBD71200CD
:080B38001F0EC514FDE1C750BA
:060B4000040BFAE11200B3
:0A0B460046696E20696E69740000B4
:030B500000003270
:0C0B5300FFFFFFFFFFFFFFFF000000009E
:020000040030CA
:0100010008F6
:010003001EDE
:010005008179
:0100060001F8
:00000001FF
