:020000040000FA
:0600000099EF05F012006B
:020006001200E6
:0600080016EF02F01200E9
:02000E000200EE
:10001000650B0000800000000C0000005C0B00007D
:08002000960000000900000039
:08002800800EC76E280EC66EA3
:10003000C56A130EC86E1200D9CFE6FFE1CFD9FF13
:100040001F0EC51403E1C750040B01E0F9D7C580AA
:10005000C5B0FED7FE0EDB50C96EC7B0FED7C5BC1B
:10006000FED71F0EC51403E1C750040B01E0F9D7FA
:10007000C584C5B4FED79E96000E00D0E552E7CFEA
:10008000D9FF1200D9CFE6FFE1CFD9FF060EE12656
:10009000040EDB6A0A0EF36E050EF3CFDBFFFE0ED5
:1000A000DBCFE6FFD2EC04F0E552E76E040EE7CFBB
:1000B000DBFF050EDB06040EDB500EE0050EDBCF8A
:1000C00004F0000EE76E0418E8AE02D0043403D04A
:1000D000E750D8800454E3E30A0EF36E050EF3CF25
:1000E000DBFFFD0EDBCFE6FFFE0EDBCFE6FF1AECFB
:1000F00003F0E552E552020EF3CFDBFF030EF4CF1F
:10010000DBFF050EDB06030EDB500EE0050EDBCF3A
:1001100004F0000EE76E0418E8AE02D0043403D0F9
:10012000E750D8800454DDE3030EDB5002E0DF68C3
:1001300006D0020EDB50E76E010EE7CFDBFF0A0EA2
:10014000F36E050EF3CFDBFFFD0EDB28E66EFE0E31
:10015000DBCFE6FF1AEC03F0E552E552020EF3CFD7
:10016000DBFF030EF4CFDBFF050EDB06030EDB50D7
:100170000EE0050EDBCF04F0000EE76E0418E8AECB
:1001800002D0043403D0E750D8800454DDE3030EDA
:10019000DB5003E0010EDB6803D0020EDB50DF6EA4
:1001A000DECF04F0DDCF05F004C0F3FF05C0F4FF9F
:1001B00000D0060EE15C02E2E16AE552E16EE55232
:1001C000E7CFD9FF1200D9CFE6FFE1CFD9FF020E6A
:1001D000E126DF6ADE520A0EDD6EFE0EDBCFE6FFA1
:1001E000D2EC04F0E552DF6E010EDB06DF500EE0CC
:1001F000010EDBCF04F0000EE76E0418E8AE02D06B
:10020000043403D0E750D8800454E7E3DE520A0EEA
:10021000DD6EFD0EDBCFE6FFE66AFE0EDBCFE6FF0E
:1002200085EC04F0E552E552E552DF6E010EDB0687
:10023000DF500EE0010EDBCF04F0000EE76E041875
:10024000E8AE02D0043403D0E750D8800454E1E390
:10025000020EE15C02E2E16AE552E16EE552E7CFAF
:10026000D9FF1200D9CFE6FFE1CFD9FFE652DF6A0E
:100270001F0EC51403E1C750040B01E0F9D7C58078
:10028000C5B0FED7FE0EDB50C96EC7B0FED7C5BCE9
:10029000FED71F0EC51403E1C750040B01E0F9D7C8
:1002A000DFCF04F0056A04BE0568FC0EDB500424B1
:1002B000E96EFD0EDB500520EA6EEF50C96EC7B047
:1002C000FED7C5BCFED7DF50DF2A046E056A04BE28
:1002D0000568FC0EDB500424E96EFD0EDB500520A2
:1002E000EA6EEF50D6E11F0EC51403E1C750040BB0
:1002F00001E0F9D7C584C5B4FED79E96000E00D0A4
:10030000E552E552E7CFD9FF1200D9CFE6FFE1CFA2
:10031000D9FFE652DF6A1F0EC51403E1C750040B74
:1003200001E0F9D7C580C5B0FED7FE0EDB28C96E47
:10033000C7B0FED7C5BCFED71F0EC51403E1C7501A
:10034000040B01E0F9D7C586C7A0FED7DFCF04F0C4
:10035000056A04BE0568FC0EDB500424E96EFD0E40
:10036000DB500520EA6EC9CFEFFFC95002E0C59A05
:1003700001D0C58AC588C5B8FED7DF50DF2A046E14
:10038000056A04BE0568FC0EDB500424E96EFD0E10
:10039000DB500520EA6EEF50CFE11F0EC51403E1DC
:1003A000C750040B01E0F9D7C584C5B4FED79E96AB
:1003B000000E00D0E552E552E7CFD9FF1200D9CFA9
:1003C000E6FFE1CFD9FFE652DF6A1F0EC51403E155
:1003D000C750040B01E0F9D7C580C5B0FED7FE0EAB
:1003E000DB50C96EC7B0FED7C5BCFED71F0EC51403
:1003F00003E1C750040B01E0F9D7FD0EDB50C96ED5
:10040000C7B0FED7C5BCFED71F0EC51403E1C75049
:10041000040B01E0F9D7C584C5B4FED79E96DF5022
:0C04200000D0E552E552E7CFD9FF1200F2
:04042C00DACFE4FF40
:10043000E2CFDAFFE9CFE4FFEACFE4FFF6CFE4FF53
:10044000F7CFE4FFF5CFE4FFF3CFE4FFF4CFE4FF11
:10045000FACFE4FF00EE00F0020EE80403E3EECF73
:10046000E4FFFBD700EE04F0020EE80403E3EECF56
:10047000E4FFFBD7E6529EA243D09E92640E000199
:10048000885D04E10001886BC28202D00001882BE4
:100490000A0E00018A5D1FE10001A0051CE10001B8
:1004A0008A6B020EE66EE00EE66E42EC00F0E5525C
:1004B000E552F3CFA2F0E66AE00EE66EE3EC00F060
:1004C000E552E552510EE66EE00EE66EE3EC00F00A
:1004D000E552E55202D000018A2B00018B51000841
:1004E0000FE200018B2B00018B51026E036A033473
:1004F00004E20250C808000E035402E200018B6BB4
:100500009E50100B04E09D50100B01E09D989EAC96
:1005100044D09E9CC4CFA7F000018951EA6A800FA5
:10052000E96E000EEA22A7C0EFFF0001892B00014F
:10053000070E89170001A56BA66B00019F6B080EC3
:1005400000019F5D13E200019F51EA6A800FE96E8E
:10055000000EEA22EF50026E036A02500001A52746
:1005600003500001A62300019F2BE9D7A5C002F08C
:10057000A6C003F0030ED89003320232E804FBE178
:1005800002C0A5F003C0A6F00001960EA55D000E06
:10059000A65901E28A8AA2C0A1F0F2A227D0F29263
:1005A00000018B5123E10001010E8B6FA20EE66E5C
:1005B0001CEC00F0E552000901E0F8D7A80EE66E49
:1005C000000EE66EA20EE66E85EC01F0E552E552F5
:1005D000E552330E0001A95D09E10001A05104E1DB
:1005E0000001010EA06F02D00001A06BE55200EEE9
:1005F00005F0020EE80403E3E5CFEDFFFBD700EEC4
:1006000001F0020EE80403E3E5CFEDFFFBD7E5CFF1
:10061000FAFFE5CFF4FFE5CFF3FFE5CFF5FFE5CF38
:10062000F7FFE5CFF6FFE5CFEAFFE5CFE9FFE5CF3E
:04063000DAFF1100DC
:0C063400D9CFE6FFDACFE6FFE1CFD9FF17
:10064000E2CFDAFFA7EC05F0C580C5A003D0FDD747
:10065000C5B0FED7A1B63BD0FD0E57D804E0C58487
:10066000C5B4FED71ED0C5BC3DD0FC0E4ED804E0AC
:10067000C584C5B4FED715D0C5BC2FD0C582C5A2D0
:1006800003D0FDD7C5B2FED7A1B621D0FD0EDB2821
:10069000E66E50EC05F0E552000905E0C584C5B4EE
:1006A000FED7FD0E23D0C5BC14D0C586C5B6FED777
:1006B000C58AC588C5A803D0FDD7C5B8FED7C584EF
:1006C000C5A403D0FDD7C5B4FED7A1A612D0F36848
:1006D0000ED0C584C5B4FED703D0C584C5B4FED73B
:1006E000FE0E04D0C584C5B4FED7FE0EF36EF468CA
:1006F00006D0C950046E056AF36E05C0F4FFE552DA
:10070000E5CFDAFFE7CFD9FF1200DBCFE6FF50ECF1
:0807100005F0E552000912009A
:080718000001A06B0001A16BC0
:100720000001A36B0001320EA46FE3EC03F0960E00
:10073000E66E000EE66E23EC05F0E552E552000190
:10074000A11DE66E400EE66EDFEC01F0E552E552CB
:100750000001A00532E1020E0001A35D0CE10001E1
:10076000A251320805E2A4C0BEFFA4C0BBFF02D064
:10077000BE6ABB6A21D00001A251280814E2000120
:10078000A251046E056AD890055004E6960E045CEA
:10079000000E055808E20001010EA36FA4C0BEFFC1
:1007A000A4C0BBFF09D00001A30506E10001020EB1
:1007B000A36FBE6ABB6A00D004D0BE6ABB6A0001E8
:0607C000A16BBDD7120081
:0A07C6008F0ED3147009D36E939ABE
:1007D00093808182929C929E32D816D809D814ECCC
:1007E00000F0808C808EF19CF288F28CF28E1200E8
:1007F000948CB896AC94AC98B06A190EAF6EAB8E70
:10080000AC8A9D889E981200939AF00EC1140C0930
:10081000C16ECF0EC1140009C16EF80EC0140109DB
:10082000C06EC70EC0141809C06EC30EC2140809EA
:10083000C26EC09EC2809E9C9D8CF28C12009492CF
:100840009494CA827C0ECB6EBE6ABB6ABD98BD9A78
:10085000BA98BA9ABD86BD84BA86BA84870ECA147D
:0C0860004809CA6ECA849D829F82120063
:04086C000E0EF66E08
:10087000000EF76E000EF86E00010900F550916F42
:100880000900F550926F03E1916701D03DD0090056
:10089000F5508C6F0900F5508D6F0900F5508E6F83
:1008A00009000900F550E96E0900F550EA6E0900EB
:1008B00009000900F5508F6F0900F550906F09008D
:1008C0000900F6CF93F0F7CF94F0F8CF95F08CC0F5
:1008D000F6FF8DC0F7FF8EC0F8FF00018F5302E1D5
:1008E000905307E00900F550EE6E8F07F8E290078D
:1008F000F9D793C0F6FF94C0F7FF95C0F8FF000149
:0A0900009107000E925BBFD71200B2
:06090A00D9CFE6FFDACFB1
:10091000E6FFE1CFD9FFE2CFDAFFA7EC05F0C58013
:10092000C5A003D0FDD7C5B0FED7A1B62BD0FD0E14
:1009300032D804E0C584C5B4FED711D0C5BC15D0EB
:10094000FC0E29D804E0C584C5B4FED708D0C5BCC8
:1009500008D0FB0E20D80EE0C584C5B4FED7FD0E2E
:1009600014D0C584C5B4FED703D0C584C5B4FED7A2
:10097000FE0E0BD0C584C5A403D0FDD7C5B4FED7E9
:10098000A1A602D0FF0E01D0000EE552E5CFDAFF9E
:10099000E7CFD9FF1200DBCFE6FF50EC05F0E552C0
:0409A0000009120038
:0C09A400D9CFE6FFDACFE6FFE1CFD9FFA4
:1009B000E2CFDAFFA7EC05F0C580C5A003D0FDD7D4
:1009C000C5B0FED7A1B61FD027D804E1C584C5B4F1
:1009D000FED70FD0C5AC0FD0C582C5A203D0FDD7BE
:1009E000C5B2FED7A1B60FD017D8F4E1C584C5B4FF
:1009F000FED7FD0E0BD0C584C5A403D0FDD7C5B46A
:100A0000FED7A1A602D0FF0E01D0000EE552E5CF21
:100A1000DAFFE7CFD9FF1200FD0EDBCFE6FF50EC87
:080A200005F0E552FF08120089
:080A2800D9CFE6FFE1CFD9FFB1
:100A30009DB8FED7FE0EDB50AD6E9EA8FED7E552E8
:100A4000E7CFD9FF1200D9CFE6FFE1CFD9FF0001F0
:100A50009F6B00019F51E76EFD0EDBCFE9FFFE0E9D
:100A6000DBCFEAFFE750E926000EEA22EF5014E060
:100A700000019F51E76EFD0EDBCFE9FFFE0EDBCFDD
:100A8000EAFFE750E926000EEA22EF50E66ECCDFDF
:100A9000E55200019F2BDDD7E552E7CFD9FF1200C9
:100AA000D9CFE6FFDACFE6FFE1CFD9FFE2CFDAFF19
:100AB000FD0EDB50C96EC6AE02D0FF0E24D00F0E65
:100AC000C61408080FE00F0EC6140B080BE0C6880A
:100AD0009EA6FED7C750040B03E1C750010B10E0E0
:100AE000000E11D00F0EC614080804E00F0EC61435
:100AF0000B0809E1C7B0FED7A7EC05F0C5AC02D0E2
:100B0000FE0E01D0000EE552E5CFDAFFE7CFD9FFA8
:020B10001200D1
:0E0B1200000EF36E00EE00F0060E01D8120089
:100B2000EA6002D0EE6AFCD7F350E9601200EE6A88
:020B3000FCD7F0
:0E0B320015EE00F025EE00F0F86A019C36EC9E
:0E0B400004F003EC00F08CEC03F0FBD7120085
:020B4E001F0E78
:0C0B5000C514FDE1C750040BFAE11200CF
:040B5C0046696E2058
:050B6000696E697400DC
:0B0B6500FFFFFFFFFFFFFFFF0000008D
:010B70000084
:020000040030CA
:0100010008F6
:010003001EDE
:010005008179
:0100060001F8
:00000001FF
