:020000040000FA
:0600000080EF06F0120083
:020006001200E6
:0600080016EF02F01200E9
:02000E000200EE
:100010004F0D00008000000027000000460D00008A
:08002000B1000000090000001E
:08002800800EC76E280EC66EA3
:10003000C56A130EC86E1200D9CFE6FFE1CFD9FF13
:100040001F0EC51403E1C750040B01E0F9D7C580AA
:10005000C5B0FED7FE0EDB50C96EC7B0FED7C5BC1B
:10006000FED71F0EC51403E1C750040B01E0F9D7FA
:10007000C584C5B4FED79E96000E00D0E552E7CFEA
:10008000D9FF1200D9CFE6FFE1CFD9FF060EE12656
:10009000040EDB6A0A0EF36E050EF3CFDBFFFE0ED5
:1000A000DBCFE6FFA3EC05F0E552E76E040EE7CFE9
:1000B000DBFF050EDB06040EDB500EE0050EDBCF8A
:1000C00012F0000EE76E1218E8AE02D0123403D020
:1000D000E750D8801254E3E30A0EF36E050EF3CF17
:1000E000DBFFFD0EDBCFE6FFFE0EDBCFE6FFDFEC36
:1000F00003F0E552E552020EF3CFDBFF030EF4CF1F
:10010000DBFF050EDB06030EDB500EE0050EDBCF3A
:1001100012F0000EE76E1218E8AE02D0123403D0CF
:10012000E750D8801254DDE3030EDB5002E0DF68B5
:1001300006D0020EDB50E76E010EE7CFDBFF0A0EA2
:10014000F36E050EF3CFDBFFFD0EDB28E66EFE0E31
:10015000DBCFE6FFDFEC03F0E552E552020EF3CF12
:10016000DBFF030EF4CFDBFF050EDB06030EDB50D7
:100170000EE0050EDBCF12F0000EE76E1218E8AEAF
:1001800002D0123403D0E750D8801254DDE3030EBE
:10019000DB5003E0010EDB6803D0020EDB50DF6EA4
:1001A000DECF12F0DDCF13F012C0F3FF13C0F4FF67
:1001B00000D0060EE15C02E2E16AE552E16EE55232
:1001C000E7CFD9FF1200D9CFE6FFE1CFD9FF020E6A
:1001D000E126DF6ADE520A0EDD6EFE0EDBCFE6FFA1
:1001E000A3EC05F0E552DF6E010EDB06DF500EE0FA
:1001F000010EDBCF12F0000EE76E1218E8AE02D04F
:10020000123403D0E750D8801254E7E3DE520A0ECE
:10021000DD6EFD0EDBCFE6FFE66AFE0EDBCFE6FF0E
:1002200056EC05F0E552E552E552DF6E010EDB06B5
:10023000DF500EE0010EDBCF12F0000EE76E121859
:10024000E8AE02D0123403D0E750D8801254E1E374
:10025000020EE15C02E2E16AE552E16EE552E7CFAF
:10026000D9FF1200D9CFE6FFE1CFD9FFE652DF6A0E
:100270001F0EC51403E1C750040B01E0F9D7C58078
:10028000C5B0FED7FE0EDB50C96EC7B0FED7C5BCE9
:10029000FED71F0EC51403E1C750040B01E0F9D7C8
:1002A000DFCF12F0136A12BE1368FC0EDB5012246B
:1002B000E96EFD0EDB501320EA6EEF50C96EC7B039
:1002C000FED7C5BCFED7DF50DF2A126E136A12BEFE
:1002D0001368FC0EDB501224E96EFD0EDB50132078
:1002E000EA6EEF50D6E11F0EC51403E1C750040BB0
:1002F00001E0F9D7C584C5B4FED79E96000E00D0A4
:10030000E552E552E7CFD9FF1200D9CFE6FFE1CFA2
:10031000D9FFE652DF6A1F0EC51403E1C750040B74
:1003200001E0F9D7C580C5B0FED7FE0EDB28C96E47
:10033000C7B0FED7C5BCFED71F0EC51403E1C7501A
:10034000040B01E0F9D7C586C7A0FED7DFCF12F0B6
:10035000136A12BE1368FC0EDB501224E96EFD0E08
:10036000DB501320EA6EC9CFEFFFC95002E0C59AF7
:1003700001D0C58AC588C5B8FED7DF50DF2A126E06
:10038000136A12BE1368FC0EDB501224E96EFD0ED8
:10039000DB501320EA6EEF50CFE11F0EC51403E1CE
:1003A000C750040B01E0F9D7C584C5B4FED79E96AB
:1003B000000E00D0E552E552E7CFD9FF1200D9CFA9
:1003C000E6FFE1CFD9FFE652DF6A1F0EC51403E155
:1003D000C750040B01E0F9D7C580C5B0FED7FE0EAB
:1003E000DB50C96EC7B0FED7C5BCFED71F0EC51403
:1003F00003E1C750040B01E0F9D7FD0EDB50C96ED5
:10040000C7B0FED7C5BCFED71F0EC51403E1C75049
:10041000040B01E0F9D7C584C5B4FED79E96DF5022
:0C04200000D0E552E552E7CFD9FF1200F2
:04042C00DACFE4FF40
:10043000E2CFDAFFE9CFE4FFEACFE4FFF6CFE4FF53
:10044000F7CFE4FFF5CFE4FFF3CFE4FFF4CFE4FF11
:10045000FACFE4FF00EE00F0100EE80403E3EECF65
:10046000E4FFFBD700EE12F0020EE80403E3EECF48
:10047000E4FFFBD7E6529EA25ED09E92640E00017E
:10048000A35D04E10001A36BC28202D00001A32B93
:100490000A0E0001A55D3AE10001BB0537E100014C
:1004A000A56B020EE66EE00EE66E42EC00F0E55241
:1004B000E552F3CFBDF0E66AE00EE66EE3EC00F045
:1004C000E552E552510EE66EE00EE66EE3EC00F00A
:1004D000E552E5528B0EE66E000EE66EF4EC05F08A
:1004E000E552E5520A0E106E10C00CF0BEC007F0C7
:1004F0008EEC06F00350300FE66EE5EC05F0E552A9
:100500000D0EE66EE5EC05F0E55202D00001A52BDC
:100510000001A65100080FE20001A62B0001A65120
:10052000106E116A113404E21050C808000E115404
:1005300002E20001A66B9E50100B04E09D50100BD0
:1005400001E09D989EACEED09E9CC4CFC2F000010D
:10055000A451EA6A9B0FE96E000EEA22C2C0EFFFC7
:100560000001A42B0001070EA4170001C06BC16B92
:100570000001BA6B080E0001BA5D13E20001BA5126
:10058000EA6A9B0FE96E000EEA22EF50106E116AC4
:1005900010500001C02711500001C1230001BA2BE7
:1005A000E9D7C0C010F0C1C011F0030ED8901132CD
:1005B0001032E804FBE110C0C0F011C0C1F000012E
:1005C000960EC05D000EC15901E28A8A800EE66E69
:1005D000000EE66EF4EC05F0E552E552C0C010F0F6
:1005E000C1C011F0640E0B6E0C6A10C006F011C091
:1005F00007F05AEC06F006C010F007C011F0300EFC
:100600001024E66EE5EC05F0E552C0C010F0C1C064
:1006100011F0640E0B6E0C6A10C006F011C007F0EA
:100620005AEC06F002C010F003C011F00A0E0B6E77
:100630000C6A10C006F011C007F05AEC06F006C0B4
:1006400010F007C011F0300E1024E66EE5EC05F056
:10065000E552C0C010F0C1C011F00A0E0B6E0C6A5A
:1006600010C006F011C007F05AEC06F002C010F0FE
:1006700003C011F0300E1024E66EE5EC05F0E552F3
:100680003A0EE66EE5EC05F0E5520E0E0001C025CF
:100690000001C06F000E0001C1210001C16F040EF6
:1006A0000F0B000105E0D890C133C033E806FBE131
:1006B000C0C010F0C1C011F00A0E0B6E0C6A10C061
:1006C00006F011C007F05AEC06F006C010F007C0A3
:1006D00011F0300E1024E66EE5EC05F0E552C0C0D6
:1006E00010F0C1C011F00A0E0B6E0C6A10C006F0BB
:1006F00011C007F05AEC06F002C010F003C011F070
:10070000300E1024E66EE5EC05F0E552560EE66E6E
:10071000E5EC05F0E5520D0EE66EE5EC05F0E55270
:10072000BDC0BCF0F2A227D0F2920001A65123E195
:100730000001010EA66FA20EE66E1CEC00F0E55261
:10074000000901E0F8D7C30EE66E000EE66EA20EB9
:10075000E66E85EC01F0E552E552E552330E0001FC
:10076000C45D09E10001BB5104E10001010EBB6F52
:1007700002D00001BB6BE55200EE13F0020EE8045C
:1007800003E3E5CFEDFFFBD700EE0FF0100EE8041A
:1007900003E3E5CFEDFFFBD7E5CFFAFFE5CFF4FFAD
:1007A000E5CFF3FFE5CFF5FFE5CFF7FFE5CFF6FFA8
:0E07B000E5CFEAFFE5CFE9FFE5CFDAFF110064
:0207BE00D9CF91
:1007C000E6FFDACFE6FFE1CFD9FFE2CFDAFF9CEC1C
:1007D00006F0C580C5A003D0FDD7C5B0FED7A1B631
:1007E0003BD0FD0E57D804E0C584C5B4FED71ED05B
:1007F000C5BC3DD0FC0E4ED804E0C584C5B4FED7C0
:1008000015D0C5BC2FD0C582C5A203D0FDD7C5B2B7
:10081000FED7A1B621D0FD0EDB28E66E21EC06F056
:10082000E552000905E0C584C5B4FED7FD0E23D00E
:10083000C5BC14D0C586C5B6FED7C58AC588C5A8AF
:1008400003D0FDD7C5B8FED7C584C5A403D0FDD756
:10085000C5B4FED7A1A612D0F3680ED0C584C5B426
:10086000FED703D0C584C5B4FED7FE0E04D0C58420
:10087000C5B4FED7FE0EF36EF46806D0C950126EF2
:10088000136AF36E13C0F4FFE552E5CFDAFFE7CF4A
:10089000D9FF1200DBCFE6FF21EC06F0E55200099C
:0208A000120044
:0E08A2000001BB6B0001BC6B0001BE6B0001CE
:1008B000320EBF6FB4EC04F0B10EE66E000EE66EC1
:1008C000F4EC05F0E552E5520001BC1DE66E400E69
:1008D000E66EDFEC01F0E552E5520001BB053EE1BA
:1008E000020E0001BE5D18E10001BD51320811E2A7
:1008F0000001BD51126E136AD890135004E6960E93
:10090000125C000E135805E2BFC0BEFFBFC0BBFFA4
:1009100002D0BE6ABB6A21D00001BD51280814E292
:100920000001BD51126E136AD890135004E6960E62
:10093000125C000E135808E20001010EBE6FBFC02A
:10094000BEFFBFC0BBFF09D00001BE0506E100012C
:10095000020EBE6FBE6ABB6A00D004D0BE6ABB6A1C
:080960000001BC6BB1D71200CD
:080968008F0ED3147009D36E49
:10097000939A93808182929C929E32D816D809D8FD
:1009800014EC00F0808C808EF19CF288F28CF28E58
:100990001200948CB896AC94AC98B06A190EAF6EF5
:1009A000AB8EAC8A9D889E981200939AF00EC1146B
:1009B0000C09C16ECF0EC1140009C16EF80EC0142F
:1009C0000109C06EC70EC0141809C06EC30EC21450
:1009D0000809C26EC09EC2809E9C9D8CF28C120043
:1009E00094929494CA827C0ECB6EBE6ABB6ABD9808
:1009F000BD9ABA98BA9ABD86BD84BA86BA84870E63
:0E0A0000CA144809CA6ECA849D829F821200E1
:020A0E000E0ECA
:100A1000F66E000EF76E000EF86E00010900F5503C
:100A2000AC6F0900F550AD6F03E1AC6701D03DD06C
:100A30000900F550A76F0900F550A86F0900F5509F
:100A4000A96F09000900F550E96E0900F550EA6E3A
:100A5000090009000900F550AA6F0900F550AB6FB5
:100A600009000900F6CFAEF0F7CFAFF0F8CFB0F045
:100A7000A7C0F6FFA8C0F7FFA9C0F8FF0001AA535E
:100A800002E1AB5307E00900F550EE6EAA07F8E269
:100A9000AB07F9D7AEC0F6FFAFC0F7FFB0C0F8FFA5
:0C0AA0000001AC07000EAD5BBFD71200D8
:040AAC00D9CFE6FFB9
:100AB000DACFE6FFE1CFD9FFE2CFDAFF9CEC06F018
:100AC000C580C5A003D0FDD7C5B0FED7A1B62BD039
:100AD000FD0E32D804E0C584C5B4FED711D0C5BC24
:100AE00015D0FC0E29D804E0C584C5B4FED708D0C3
:100AF000C5BC08D0FB0E20D80EE0C584C5B4FED717
:100B0000FD0E14D0C584C5B4FED703D0C584C5B4CA
:100B1000FED7FE0E0BD0C584C5A403D0FDD7C5B447
:100B2000FED7A1A602D0FF0E01D0000EE552E5CF00
:100B3000DAFFE7CFD9FF1200DBCFE6FF21EC06F0AA
:060B4000E552000912005D
:0A0B4600D9CFE6FFDACFE6FFE1CFDA
:100B5000D9FFE2CFDAFF9CEC06F0C580C5A003D038
:100B6000FDD7C5B0FED7A1B61FD027D804E1C584F4
:100B7000C5B4FED70FD0C5AC0FD0C582C5A203D077
:100B8000FDD7C5B2FED7A1B60FD017D8F4E1C58402
:100B9000C5B4FED7FD0E0BD0C584C5A403D0FDD7C8
:100BA000C5B4FED7A1A602D0FF0E01D0000EE552BB
:100BB000E5CFDAFFE7CFD9FF1200FD0EDBCFE6FF6E
:0A0BC00021EC06F0E552FF081200D8
:060BCA00D9CFE6FFE1CFE8
:100BD000D9FF9DB8FED7FE0EDB50AD6E9EA8FED7A6
:100BE000E552E7CFD9FF1200D9CFE6FFE1CFD9FF19
:100BF0000001BA6B0001BA51E76EFD0EDBCFE9FFD1
:100C0000FE0EDBCFEAFFE750E926000EEA22EF50A6
:100C100014E00001BA51E76EFD0EDBCFE9FFFE0ED6
:100C2000DBCFEAFFE750E926000EEA22EF50E66E3E
:100C3000CCDFE5520001BA2BDDD7E552E7CFD9FF73
:020C40001200A0
:0E0C4200D9CFE6FFDACFE6FFE1CFD9FFE2CF50
:100C5000DAFFFD0EDB50C96EC6AE02D0FF0E24D007
:100C60000F0EC61408080FE00F0EC6140B080BE099
:100C7000C6889EA6FED7C750040B03E1C750010BE0
:100C800010E0000E11D00F0EC614080804E00F0E7D
:100C9000C6140B0809E1C7B0FED79CEC06F0C5AC42
:100CA00002D0FE0E01D0000EE552E5CFDAFFE7CF0D
:040CB000D9FF120056
:0C0CB400036A026A100EE76ED890063644
:100CC0000736023603360B50025C0C50035805E31E
:100CD0000B50025E0C50035A062AE72EF0D7120082
:100CE000000EF36E00EE00F0060E01D81200EA606E
:100CF00002D0EE6AFCD7F350E9601200EE6AFCD72E
:100D000015EE00F025EE00F0F86A0F9C07EC05F0F8
:0C0D100003EC00F051EC04F0FBD71200E3
:040D1C00036A080E50
:100D2000E76ED890073603360C50035C02E3036E7F
:080D3000072AE72EF7D7120095
:080D38001F0EC514FDE1C750B8
:060D4000040BFAE11200B1
:090D460046696E20696E697400B3
:010D4F004261
:100D5000617474657269653A20004D6F6465203A6C
:100D60002000536F6E6172203A00FFFFFFFFFFFF0C
:060D7000FFFF000000007F
:020000040030CA
:0100010008F6
:010003001EDE
:010005008179
:0100060001F8
:00000001FF
