:020000040000FA
:06000000F1EF0DF012000B
:020006001200E6
:060008002DEF08F01200CC
:02000E000300ED
:100010006D1C00008000000023000000641C000034
:10002000AD00000009000000621C0000C2000000DA
:0400300002000000CA
:0C00340056EC05F0FB0EDBCFF3FFDB0603
:10004000F35000090AE0A4EC05F0FA0E0FEC06F0FC
:10005000F3E1151CF1E1010E01D0000E85EF05F072
:1000600056EC05F03B0EE12402E3E168E652E16E56
:10007000010EDB6A020EDB6AF90EDBCFF6FFFA0E29
:10008000DBCFF7FFFB0EDBCFF8FF0800F550DF6E8C
:10009000DF5002E1A9EF04F0250EDF5C02E09CEFE7
:1000A00004F0030EDB6A040EDB6A050EDB6A060E43
:1000B000DB6A070EDB6ABEEC04F02D0EDF5C0CE0A1
:1000C0002B0EDF5C09E0200EDF5C06E0230EDF5C18
:1000D00003E0300EDF5C1AE1DF50300A14E0130A4F
:1000E0000FE0030A0AE00B0A05E0060AE4E1030E4A
:1000F000DB80E1D7030EDB82DED7030EDB84DBD7A8
:10010000030EDB86D8D7030EDB88D5D72A0EDF5C3B
:100110001BE1BAEC04F008EC05F010E0030EDB8004
:1001200006680768130EDBCF0BF0140EDBCF0CF064
:1001300068EC0DF0040E04C0DBFF03D0130EF1ECED
:1001400004F0BEEC04F00BD0090EDB6A5FEC05F0A6
:1001500003E0D3EC05F0FAD7090EF1EC04F0030E3E
:10016000DBB0DB982E0EDF5C1BE1BEEC04F02A0E48
:10017000DF5C0BE1BAEC04F008EC05F003E1130ED0
:1001800043EC05F0BEEC04F00BD0090EDB6A5FEC2B
:1001900005F003E0D3EC05F0FAD7090E43EC05F0C7
:1001A000680EDF5C07E1BEEC04F0680EDF5C1DE169
:1001B000030E18D0740EDF5C17E07A0EDF5C14E0DB
:1001C000480EDF5C06E0540EDF5C03E05A0EDF5C95
:1001D00002E1020E07D06C0EDF5C03E06A0EDF5C0A
:1001E00004E1010E96EC05F0C9DBDF506E0A01E177
:1001F0007FD31E0A01E192D1200A01E18FD13F0A8B
:1002000001E149D11A0A01E146D10D0A01E143D1C8
:10021000200A01E140D13A0A01E13DD1200A01E181
:100220003AD1260A01E135D10D0A01E132D11A0A8B
:1002300001E1D9D0200A4AE0300A1FE0460A0EE068
:10024000250A01E083D3D950F90FE96EFF0EDA20B9
:10025000EA6E010EEE5E000EEE5AEE5AA4EC05F0C8
:10026000250EE66E95DB03E1151C01E169D3A0ECD8
:1002700005F001E26BD3DB2A69D3080EDB6A040EBA
:10028000DB50010806E2040EDB0468EC05F0DB50ED
:100290008BDB080EDB5009E0030EDB50010B05E1A0
:1002A00072DB01E04DD3080EDB6A64DBEFCFDFFFCA
:1002B00018EC06F003E1151C01E142D3A0EC05F0B7
:1002C00001E3DB2A60DB01E141D33AD3070EDB50C7
:1002D00002080FE1E4EC05F0030EABEC05F00E0EA6
:1002E000EECFDBFF0F0EEECFDBFF100EEECFDBFF0E
:1002F00020D0F70EDBCF17F0F80EDBCF18F0020E90
:10030000175E000E185AF70E17C0DBFFF80E18C064
:10031000DBFF17C0E9FF18C0EAFF9BEC05F0166A87
:100320000E0E14C0DBFF0F0E15C0DBFF100E16C043
:10033000DBFF0E0EDBCFE6FF0F0EDBCFE6FF100E6E
:10034000DBCFE6FF43EC0DF0E552E552E552130E2C
:1003500005C0DBFF140E06C0DBFF060EDB5005E018
:10036000130EDFEC05F001E26ADB03EC06F002E2BB
:10037000130E37DBC6EC05F006E0040EDFEC05F0EB
:1003800002E2050E2EDB030EDBB005D0FCDA01E045
:10039000D7D2080EDB6A090EDB6A0E0EDBCFF6FF42
:1003A0000F0EDBCFF7FF100EDBCFF8FF0800F55084
:1003B000DF6EDF5014E009EC06F011E218EC06F0F5
:1003C00003E1151C01E1BCD2BBDB01E3DB2A090E12
:1003D000DB2AD9500E0FE96E000ECBDBE7D7D3DA5C
:1003E00001E1B4D2ADD2C6DA110EEECFDBFF120EB0
:1003F000EDCFDBFF110EDBCFE6FF120EDBCFE6FF0A
:1004000035EC0DF0E552E552130EF3CFDBFF140E81
:10041000F4CFDBFF060EDB5004E0130ED0DB01E26D
:100420000EDB03EC06F002E2130EDBDAAFDB05E0D5
:10043000040EC5DB02E2050ED4DA030EDBB005D0F4
:10044000A2DA01E07DD2080EDB6A090EDB6A110E2A
:10045000DBCFE9FF120EDBCFEAFFEFCFDFFFDF508C
:1004600014E0D7DB12E2E4DB03E1151C01E168D202
:1004700067DB01E3DB2A090EDB2A110EDB2ADBCF67
:10048000E9FF120EE8E3DB2AE6D77DDA01E15ED26E
:1004900057D2030EDB8E070EDB0410E195DB040E52
:1004A0005ADB0A0EEECFDBFF0B0EEECFDBFF0C0E9E
:1004B000EECFDBFF0D0EEECFDBFF6CD0070EDB5077
:1004C00003082CE1030EDBAE0DD0B2DA020E76DAB1
:1004D000EFCF14F0156A166A176A14AE39D0156892
:1004E000166835D0F70EDBCF15F0F80EDBCF16F01F
:1004F000020E155E000E165AF70E15C0DBFFF80E41
:1005000016C0DBFF15C0E9FF16C0EAFFEFCF14F0FD
:100510000A0E14C0DBFF0B0EDB6A38D0070EDB506F
:10052000020809E1030EDBAE04D059DB16AE10D091
:100530000ED055DB0DD0030EDBAE12D079DA020EF1
:100540003DDAF9DA166A176A15AE02D0166817682E
:10055000E2DA0C0E16C0DBFF0D0E17C0DBFF1AD05F
:10056000F70EDBCF16F0F80EDBCF17F0020E165E9B
:10057000000E175AF70E16C0DBFFF80E17C0DBFF90
:1005800016C0E9FF17C0EAFFD6DAC5DA0C0EDB6A3F
:100590000D0EDB6A060EDB5005E1010EF36E050E53
:1005A000F3CFDBFF150EDB6A160EDB6AD950370F6F
:1005B000146E000EDA20156E390E14C0DBFF3A0EF1
:1005C00015C0DBFF380EDB6A080EDB6A0A0EAEDAF6
:1005D000DF50780A12E0200A10E0280A0CE0200A16
:1005E0000AE03F0A06E00D0A02E0200A08E1020ED6
:1005F00005D0080E03D0080EDF26100E97DA030E82
:10060000DBBE02D0DB92DB94DB50800B24E08ADA85
:10061000D890030EEB50000A08E6000EEE5C000EC8
:10062000EE58000EEE58000EEE5815E213DA096887
:100630000A680B680C68FDEC0CF00A0E00C0DBFFCA
:100640000B0E01C0DBFF0C0E02C0DBFF0D0E03C062
:10065000DBFF2D0E08D0030EDBA202D02B0E03D041
:10066000DBA408D0200EF36E170EF3CFDBFF150EC0
:10067000DB2A02D0170EDB6A050EDB5003E1B7D987
:1006800001E189D0360E146E1C0E156E000E166E2A
:10069000070EDBCF17F0186A196A1A6A17C009F03B
:1006A00018C00AF019C00BF01AC00CF0D3D995ECA1
:1006B0000DF014500024F36E15500120F46E165006
:1006C0000220F86EF4CFF7FFF3CFF6FF0800090E13
:1006D000F5CFDBFF580EDF5C0FE1610EF36E090E04
:1006E0007BD90AE3200E146E090EDBCFE7FF14500E
:1006F000E75E090EE7CFDBFF070EDBCF14F0156ACC
:10070000166A176A0FDA14C009F015C00AF016C08D
:100710000BF017C00CF0EECF04F0EECF05F0EECFEB
:1007200006F0EFCF07F095EC0DF007C0EDFF06C027
:10073000EDFF05C0EDFF04C0EFFF390EDBCFE9FF91
:10074000DB063A0EDBCFEAFF01E2DB06090EDBCF68
:10075000EFFF150EDB2A4BD995E1030EDBA61DD06A
:100760006F0EDF5C06E1C1D918E3150EDB285BDAFA
:1007700014D0780EDF5C09E0580EDF5C06E0620EF4
:10078000DF5C03E0420EDF5C08E1020EF36E160E42
:10079000F3CFDBFF02D0150EDB6A030EDB50100B2C
:1007A0000EE0040EDBCF14F0050EDB50D88014549D
:1007B00006E2060EDB5003E1040EDB5034DA95D975
:1007C0000AE2050EDBCFE7FF150EDB50E75E050EF4
:1007D000E7CFDBFF02D0050EDB6A040EDBCF14F09F
:1007E000160E45D9D880145414E2160EDBCFE6FF5E
:1007F000150EDBCFE6FF040EDBCFE6FF050EDB5068
:10080000E552E75CE552D880E754E552D880E754DA
:100810005FD9030EDB50010B0BE1080EDB5008E043
:10082000B2D801E08DD0080EDB50BED8080EDB6ACE
:10083000170EDB5007E088D9170EF1D903E1151C1C
:1008400001E17ED0160EDB5016E07ED9300EE66E4A
:100850009FD802E1151C74E077D9DFCFE6FF04ECE6
:100860000CF0E552E552E552F4CF15F00001F31C0F
:1008700002E1151C65E0050EDBCF14F0160EDB500F
:10088000D880145409E2050EDBCFE7FF160EDB50CB
:10089000E75E050EE7CFDBFF300EE66E050ECBD927
:1008A0004FE1390EDB2ADBCFE9FF3A0E01E3DB2A09
:1008B000DBCFEAFF090EEFCFDBFFDB500EE044D9C0
:1008C000090EADD902E1151C3BE0390EDB2ADBCF66
:1008D000E9FF3A0EEDE3DB2AEBD755D831E1160EEE
:1008E000DBCFE6FF080EC3D8E552E7245DD82ED053
:1008F000070EDB50030A1CE0010A14E0030A07E0BC
:100900007BD9DBCFEEFF020EDBCFEDFF1FD0F5D89A
:10091000196A17AE02D0186819682CD8BCD819C04B
:10092000EEFF14D0EAD817BE186824D8B4D80ED079
:1009300063D9DBCFEFFF0AD07BD905E1151C03E1BA
:10094000F368F46810D0FCD801E3DB2A79D945EFCD
:1009500000F0010EDBCF14F0020EDBCF15F014C057
:10096000F3FF15C0F4FF3B0EE15C02E2E16AE552E1
:10097000E16ECBD029D9020EABEF05F061D90800AA
:10098000F550DF6E1200200EE66E080E1BEF06F02B
:1009900004EC0CF0E552E552E552F3CF14F0F4CF3D
:1009A00015F00001F31C1200146E156AD950010FE6
:1009B0004DD91450EE261550ED221200185E000E8F
:1009C000195AF70E18C0DBFFF80E19C0DBFF18C06C
:1009D000E9FF19C0EAFF1200DBCFF4FFF350F45C2B
:1009E0001200DB50E76E040EE7CFDBFF12000A0EA9
:1009F000DBCF14F00B0EDBCF15F00C0EDBCF16F0B7
:100A00000D0EDBCF17F01450151016101710120032
:100A1000130EEECFDBFF140EEDCFDBFF130EDBCF9B
:100A200014F0140EDBCF15F00001800E1514120027
:100A3000F70EDBCF18F0F80EDBCF19F01200050E21
:100A4000DB50E66ED950130F01D9E552E750EE6E38
:100A5000ED6A12000A0EDBCF04F00B0EDBCF05F0BF
:100A60000C0EDBCF06F00D0EDBCF07F01200DBCF54
:100A7000E6FF150EDBCFE6FF050EDB50E552E7245F
:100A8000E552E7241200DB50CED8010EF36E060EBD
:100A9000F3CFDBFF1200EE50EFCFEAFFE96E16C096
:100AA000EEFF17C0EEFF18C0EEFF1200D9CFE6FF31
:100AB000DACFE6FFE1CFD9FFE2CFDAFF1200DFCFD6
:100AC000E6FFE66ACFEC0DF0E552E552F350120076
:100AD000E76E080EE7CFDBFF1200EECF14F0EECF8B
:100AE00015F0EFCF16F0176A1200050EDBCF14F0E9
:100AF000150EDB50D88014541200010EDBCF16F017
:100B0000020EDBCF17F0186A1200E552E5CFDAFFCC
:100B1000E7CFD9FF12000A0E14C0DBFF0B0E15C081
:100B2000DBFF1200D9500A0F26EF06F0F36E070E16
:100B3000F3CFDBFF1200EECF14F0EFCF15F0120071
:100B4000010EDB2A020E1200FC0EDBCFE6FFFD0ECB
:100B5000DBCFE6FF1200145E000E155AF70E14C02C
:100B6000DBFFF80E15C0DBFF14C0E9FF15C0EAFF7C
:100B70001200DA20EA6EEF2AEECFF6FF000EEF2227
:100B8000EECFF7FFEF22EECFF8FF1200040EDBCF1F
:100B9000E6FF130EDB50E552E75C9ADFDB5004DF23
:100BA000060EDB501200090EDB500A0DF350DF2455
:100BB000D00FE76E090EE7CFDBFFBEEF04F0DB508E
:100BC000F36E050EECEF04F0F70EDBCF14F0F80E29
:100BD000DBCF15F01200DFCFE6FFC8EF04F028DF0F
:100BE000030EECDE6DEF05F01AEC00F0E552E55275
:100BF000E552E55200091200BDDEEE50EFCFEAFFEC
:100C0000E96E010E1200130EDB50F36E040EECEFD2
:100C100004F0040EDB50F36E090EECEF04F0DBCFB2
:100C2000E6FFC8EF04F0E76E050EE7CFDBFF12002A
:100C30008BDFEBEF05F0DBCFE6FF86DFF4EF05F0AF
:100C4000D950F90FE96EFF0EB9EF05F0E96E000E0D
:060C5000DA20EA6E12003A
:0A0C5600800EC76E280EC66EC56A38
:100C6000130EC86E1200D9CFE6FFE1CFD9FF1F0ED9
:100C7000C51403E1C750040B01E0F9D7C580C5B026
:100C8000FED7FE0EDB50C96EC7B0FED7C5BCFED77F
:100C90001F0EC51403E1C750040B01E0F9D7C5844A
:100CA000C5B4FED79E96000E00D0E552E7CFD9FF1F
:100CB0001200D9CFE6FFE1CFD9FF060EE126040EE0
:100CC000DB6A0A0EF36E050EF3CFDBFFFE0EDBCF01
:100CD000E6FF46EC0CF0E552E76E040EE7CFDBFFD3
:100CE000050EDB06040EDB500EE0050EDBCF14F024
:100CF000000EE76E1418E8AE02D0143403D0E750AB
:100D0000D8801454E3E30A0EF36E050EF3CFDBFF35
:100D1000FD0EDBCFE6FFFE0EDBCFE6FFECEC09F0CD
:100D2000E552E552020EF3CFDBFF030EF4CFDBFFFB
:100D3000050EDB06030EDB500EE0050EDBCF14F0D4
:100D4000000EE76E1418E8AE02D0143403D0E7505A
:100D5000D8801454DDE3030EDB5002E0DF6806D0D8
:100D6000020EDB50E76E010EE7CFDBFF0A0EF36EDB
:100D7000050EF3CFDBFFFD0EDB28E66EFE0EDBCFAC
:100D8000E6FFECEC09F0E552E552020EF3CFDBFF93
:100D9000030EF4CFDBFF050EDB06030EDB500EE087
:100DA000050EDBCF14F0000EE76E1418E8AE02D08B
:100DB000143403D0E750D8801454DDE3030EDB5025
:100DC00003E0010EDB6803D0020EDB50DF6EDECFE6
:100DD00014F0DDCF15F014C0F3FF15C0F4FF00D000
:100DE000060EE15C02E2E16AE552E16EE552E7CF10
:100DF000D9FF1200D9CFE6FFE1CFD9FF020EE126DD
:100E0000DF6ADE520A0EDD6EFE0EDBCFE6FF46EC39
:100E10000CF0E552DF6E010EDB06DF500EE0010E36
:100E2000DBCF14F0000EE76E1418E8AE02D01434D5
:100E300003D0E750D8801454E7E3DE520A0EDD6E8B
:100E4000FD0EDBCFE6FFE66AFE0EDBCFE6FF6BECC6
:100E50000BF0E552E552E552DF6E010EDB06DF5086
:100E60000EE0010EDBCF14F0000EE76E1418E8AEB2
:100E700002D0143403D0E750D8801454E1E3020EBA
:100E8000E15C02E2E16AE552E16EE552E7CFD9FFAB
:100E90001200D9CFE6FFE1CFD9FFE652DF6A1F0E7D
:100EA000C51403E1C750040B01E0F9D7C580C5B0F4
:100EB000FED7FE0EDB50C96EC7B0FED7C5BCFED74D
:100EC0001F0EC51403E1C750040B01E0F9D7DFCFB3
:100ED00014F0156A14BE1568FC0EDB501424E96E7C
:100EE000FD0EDB501520EA6EEF50C96EC7B0FED77D
:100EF000C5BCFED7DF50DF2A146E156A14BE156814
:100F0000FC0EDB501424E96EFD0EDB501520EA6E5A
:100F1000EF50D6E11F0EC51403E1C750040B01E0EA
:100F2000F9D7C584C5B4FED79E96000E00D0E55211
:100F3000E552E7CFD9FF1200D9CFE6FFE1CFD9FFC5
:100F4000E652DF6A1F0EC51403E1C750040B01E02F
:100F5000F9D7C580C5B0FED7FE0EDB28C96EC7B075
:100F6000FED7C5BCFED71F0EC51403E1C750040B46
:100F700001E0F9D7C586C7A0FED7DFCF14F0156A08
:100F800014BE1568FC0EDB501424E96EFD0EDB5018
:100F90001520EA6EC9CFEFFFC95002E0C59A01D013
:100FA000C58AC588C5B8FED7DF50DF2A146E156A1A
:100FB00014BE1568FC0EDB501424E96EFD0EDB50E8
:100FC0001520EA6EEF50CFE11F0EC51403E1C750A4
:100FD000040B01E0F9D7C584C5B4FED79E96000E78
:100FE00000D0E552E552E7CFD9FF1200D9CFE6FF96
:100FF000E1CFD9FFE652DF6A1F0EC51403E1C750E7
:10100000040B01E0F9D7C580C5B0FED7FE0EDB505A
:10101000C96EC7B0FED7C5BCFED71F0EC51403E10D
:10102000C750040B01E0F9D7FD0EDB50C96EC7B005
:10103000FED7C5BCFED71F0EC51403E1C750040B75
:1010400001E0F9D7C584C5B4FED79E96DF5000D025
:0A105000E552E552E7CFD9FF120088
:06105A00DACFE4FFE2CF53
:10106000DAFFE9CFE4FFEACFE4FFF6CFE4FFF7CF02
:10107000E4FFF5CFE4FFF3CFE4FFF4CFE4FFFACFD2
:10108000E4FF00EE00F0140EE80403E3EECFE4FF0B
:10109000FBD700EE14F0070EE80403E3EECFE4FF05
:1010A000FBD7E6529EA259D09E92640E00019F5D2E
:1010B00004E100019F6BC28202D000019F2B0A0E47
:1010C0000001A15D35E10001B70532E10001A16B2E
:1010D000020EE66EE00EE66E59EC06F0E552E552C1
:1010E000F3CFB9F0E66AE00EE66EFAEC06F0E552F0
:1010F000E552510EE66EE00EE66EFAEC06F0E552B1
:10110000E5528A0EE66E000EE66E97EC0CF0E552A4
:10111000E5520A0E1B6E1BC00CF0BAC007F00DECB6
:101120000EF00350300FE66E88EC0CF0E55202D062
:101130000001A12B0001A25100080FE20001A22B27
:101140000001A2511B6E1C6A1C3404E21B50C8082B
:10115000000E1C5402E20001A26B9E50100B04E032
:101160009D50100B01E09D989EACE9D09E9CC4CF91
:10117000BEF00001A051EA6A970FE96E000EEA2264
:10118000BEC0EFFF0001A02B0001070EA017000159
:10119000BC6BBD6B0001B66B080E0001B65D13E2BF
:1011A0000001B651EA6A970FE96E000EEA22EF508D
:1011B0001B6E1C6A1B500001BC271C500001BD2384
:1011C0000001B62BE9D7BCC01BF0BDC01CF0030E5C
:1011D000D8901C321B32E804FBE11BC0BCF01CC0E1
:1011E000BDF00001960EBC5D000EBD5901E28A8A79
:1011F000800EE66E000EE66E97EC0CF0E552E552BE
:10120000BCC01BF0BDC01CF0640E0B6E0C6A1BC092
:1012100006F01CC007F0B9EC0DF006C01BF007C0CB
:101220001CF0300E1B24E66E88EC0CF0E552BCC0BE
:101230001BF0BDC01CF0640E0B6E0C6A1BC006F0E8
:101240001CC007F0B9EC0DF002C01BF003C01CF08D
:101250000A0E0B6E0C6A1BC006F01CC007F0B9EC3E
:101260000DF006C01BF007C01CF0300E1B24E66E0C
:1012700088EC0CF0E552BCC01BF0BDC01CF00A0E9F
:101280000B6E0C6A1BC006F01CC007F0B9EC0DF029
:1012900002C01BF003C01CF0300E1B24E66E88EC6D
:1012A0000CF0E5523A0EE66E88EC0CF0E5520E0EAC
:1012B0000001BC250001BC6F000E0001BD21000132
:1012C000BD6F040E0F0B000105E0D890BD33BC3399
:1012D000E806FBE1BCC01BF0BDC01CF00A0E0B6EA3
:1012E0000C6A1BC006F01CC007F0B9EC0DF006C07C
:1012F0001BF007C01CF0300E1B24E66E88EC0CF0CF
:10130000E552BCC01BF0BDC01CF00A0E0B6E0C6A8F
:101310001BC006F01CC007F0B9EC0DF002C01BF0BA
:1013200003C01CF0300E1B24E66E88EC0CF0E55276
:10133000560EE66E88EC0CF0E552B9C0B8F0F2A299
:1013400027D0F2920001A25123E10001010EA26F09
:10135000A20EE66E33EC06F0E552000901E0F8D784
:10136000BF0EE66E000EE66EA20EE66E9CEC07F077
:10137000E552E552E552330E0001C05D09E100017E
:10138000B75104E10001010EB76F02D00001B76B45
:10139000E55200EE1AF0070EE80403E3E5CFEDFF97
:1013A000FBD700EE13F0140EE80403E3E5CFEDFFE6
:1013B000FBD7E5CFFAFFE5CFF4FFE5CFF3FFE5CFAD
:1013C000F5FFE5CFF7FFE5CFF6FFE5CFEAFFE5CF85
:0813D000E9FFE5CFDAFF11008F
:0813D800D9CFE6FFDACFE6FFF2
:1013E000E1CFD9FFE2CFDAFF24EC0EF0C580C5A033
:1013F00003D0FDD7C5B0FED7A1B63BD0FD0E57D860
:1014000004E0C584C5B4FED71ED0C5BC3DD0FC0EDB
:101410004ED804E0C584C5B4FED715D0C5BC2FD0C6
:10142000C582C5A203D0FDD7C5B2FED7A1B621D0D3
:10143000FD0EDB28E66EC4EC0CF0E552000905E079
:10144000C584C5B4FED7FD0E23D0C5BC14D0C58657
:10145000C5B6FED7C58AC588C5A803D0FDD7C5B80F
:10146000FED7C584C5A403D0FDD7C5B4FED7A1A6B9
:1014700012D0F3680ED0C584C5B4FED703D0C5849E
:10148000C5B4FED7FE0E04D0C584C5B4FED7FE0E8B
:10149000F36EF46806D0C950146E156AF36E15C069
:1014A000F4FFE552E5CFDAFFE7CFD9FF1200DBCF3B
:0C14B000E6FFC4EC0CF0E552000912004D
:0414BC000001B76B09
:1014C0000001B86B0001BA6B0001320EBB6FC9ECB2
:1014D0000AF0560E146E1C0E156E166A14C0E6FF46
:1014E00015C0E6FF16C0E6FFB8EC0BF0E552E5527A
:1014F000E5520001B81DE66E400EE66EF6EC07F010
:10150000E552E5520001B7053EE1020E0001BA5D69
:1015100018E10001B951320811E20001B951146E0D
:10152000156AD890155004E6960E145C000E1558F6
:1015300005E2BBC0BEFFBBC0BBFF02D0BE6ABB6A38
:1015400021D00001B951280814E20001B951146EEC
:10155000156AD890155004E6960E145C000E1558C6
:1015600008E20001010EBA6FBBC0BEFFBBC0BBFFEB
:1015700009D00001BA0506E10001020EBA6FBE6A89
:10158000BB6A00D004D0BE6ABB6A0001B86BB1D799
:02159000120047
:0E1592008F0ED3147009D36E939A93808182CA
:1015A000929C929E32D816D809D82BEC06F0808CEB
:1015B000808EF19CF288F28CF28E1200948CB89698
:1015C000AC94AC98B06A190EAF6EAB8EAC8A9D88A5
:1015D0009E981200939AF00EC1140C09C16ECF0EA2
:1015E000C1140009C16EF80EC0140109C06EC70E07
:1015F000C0141809C06EC30EC2140809C26EC09E82
:10160000C2809E9C9D8CF28C120094929494CA820B
:101610007C0ECB6EBE6ABB6ABD98BD9ABA98BA9A68
:10162000BD86BD84BA86BA84870ECA144809CA6EBC
:08163000CA849D829F82120012
:081638000E0EF66E000EF76EB7
:10164000000EF86E00010900F550A86F0900F55072
:10165000A96F03E1A86701D03DD00900F550A36F41
:101660000900F550A46F0900F550A56F09000900A5
:10167000F550E96E0900F550EA6E0900090009000D
:10168000F550A66F0900F550A76F09000900F6CFC5
:10169000AAF0F7CFABF0F8CFACF0A3C0F6FFA4C030
:1016A000F7FFA5C0F8FF0001A65302E1A75307E02A
:1016B0000900F550EE6EA607F8E2A707F9D7AAC011
:1016C000F6FFABC0F7FFACC0F8FF0001A807000EA3
:0616D000A95BBFD7120068
:0A16D600D9CFE6FFDACFE6FFE1CF3F
:1016E000D9FFE2CFDAFF24EC0EF0C580C5A003D00D
:1016F000FDD7C5B0FED7A1B62BD0FD0E32D804E081
:10170000C584C5B4FED711D0C5BC15D0FC0E29D8F0
:1017100004E0C584C5B4FED708D0C5BC08D0FB0E14
:1017200020D80EE0C584C5B4FED7FD0E14D0C58404
:10173000C5B4FED703D0C584C5B4FED7FE0E0BD00A
:10174000C584C5A403D0FDD7C5B4FED7A1A602D0D9
:10175000FF0E01D0000EE552E5CFDAFFE7CFD9FF4B
:101760001200DBCFE6FFC4EC0CF0E55200091200DA
:10177000D9CFE6FFDACFE6FFE1CFD9FFE2CFDAFF3C
:10178000E652E652E652E652D950FB0F146EFF0EB7
:10179000DA20156E14C0DEFFDD6EDECFE6FFDDCF92
:1017A000E6FFFB0EDBCFE6FFFC0EDBCFE6FFFD0E18
:1017B000DBCFE6FFC2C0E6FFC3C0E6FF30EC00F0BF
:1017C000146E070EE15C02E2E16AE552E16E14502C
:1017D000020EF3CFDBFF030EF4CFDBFF020EDBCFF5
:1017E00014F0030EDBCF15F014C0F3FF15C0F4FFA7
:1017F000040EE15C02E2E16AE552E16EE552E5CFFA
:08180000DAFFE7CFD9FF120067
:08180800D9CFE6FFDACFE6FFBD
:10181000E1CFD9FFE2CFDAFFFB0EDBCF14F0FC0EF5
:10182000DBCF15F00001800E15141AE1FB0EDBCFA3
:10183000E9FFFC0EDBCFEAFFEECFF3FFEDCFF4FFC5
:10184000EE2A000EEF22F3CFE9FFF4CFEAFFFD0E00
:10185000DBCFEFFFEF50156AF36E15C0F4FF10D029
:10186000FB0EDB50FE0806E1FD0EDBCFE6FFFFECD2
:101870000DF005D0FD0EDBCFE6FF03EC00F0E552E6
:0C188000E552E5CFDAFFE7CFD9FF1200F8
:04188C00D9CFE6FFCB
:10189000DACFE6FFE1CFD9FFE2CFDAFF24EC0EF09A
:1018A000C580C5A003D0FDD7C5B0FED7A1B61FD057
:1018B00027D804E1C584C5B4FED70FD0C5AC0FD07E
:1018C000C582C5A203D0FDD7C5B2FED7A1B60FD041
:1018D00017D8F4E1C584C5B4FED7FD0E0BD0C5847E
:1018E000C5A403D0FDD7C5B4FED7A1A602D0FF0E74
:1018F00001D0000EE552E5CFDAFFE7CFD9FF1200A5
:10190000FD0EDBCFE6FFC4EC0CF0E552FF08120041
:10191000D9CFE6FFE1CFD9FF9DB8FED7FE0EDB5051
:10192000AD6E9EA8FED7E552E7CFD9FF1200D9CF02
:10193000E6FFE1CFD9FF0001B66B0001B651E76EBB
:10194000FD0EDBCFE9FFFE0EDBCFEAFFE750E92615
:10195000000EEA22EF5014E00001B651E76EFD0ED2
:10196000DBCFE9FFFE0EDBCFEAFFE750E926000EF2
:10197000EA22EF50E66ECCDFE5520001B62BDDD750
:08198000E552E7CFD9FF120088
:08198800D9CFE6FFDACFE6FF3C
:10199000E1CFD9FFE2CFDAFFFD0EDB50C96EC6AE54
:1019A00002D0FF0E24D00F0EC61408080FE00F0E51
:1019B000C6140B080BE0C6889EA6FED7C750040BC2
:1019C00003E1C750010B10E0000E11D00F0EC6143A
:1019D000080804E00F0EC6140B0809E1C7B0FED7D3
:1019E00024EC0EF0C5AC02D0FE0E01D0000EE55284
:0A19F000E5CFDAFFE7CFD9FF1200C0
:0619FA0004500902F3CFC6
:101A000000F0F4CF01F00A02F3500126000EF4209A
:101A1000026E04500B02F3500226000EF420036EF7
:101A200004500C02F350032605500902F35001261E
:101A3000F4500222000E032205500A02F35002263F
:101A4000F450032205500B02F350032606500902FE
:101A5000F3500226F450032206500A02F3500326E4
:0A1A600007500902F350032612009C
:061A6A00FE0EE3CFE9FFD0
:101A7000FF0EE3CFEAFFF36AF46AEE5203E0F34AA3
:101A8000F42AFBD71200FF0EE3CFF8FFE552FF0E5A
:101A9000E3CFF7FFE552FF0EE3CFF6FFE552E66A2C
:101AA000E66AE66A0900F55209E0FD0EE32A05E15F
:101AB000FE0EE32A02E1FF0EE32AF4D7FD0EE3CF88
:101AC00005F0FE0EE3CF06F0FF0EE3CF07F01200A5
:101AD00007C013F006C012F006500B02F4CF05F059
:101AE000F3CF04F007500C02F4CF07F0F3CF06F069
:101AF0000B02F3500526F4500622E86A0722125022
:101B00000C02F3500526F4500622E86A07220CAEB8
:101B10008EEF0DF01250065E1350075A13AE000CF4
:0A1B20000B50065E0C50075A000C33
:061B2A00036A026A016A71
:101B3000006A200EE76ED890043605360636073662
:101B400000360136023603360950005C0A5001584F
:101B50000B5002580C50035809E30950005E0A501C
:101B6000015A0B50025A0C50035A042AE72EE4D7AC
:021B7000120061
:0E1B7200036A026A100EE76ED8900636073638
:101B8000023603360B50025C0C50035805E30B5031
:0E1B9000025E0C50035A062AE72EF0D7120010
:021B9E00F36AE8
:101BA000F46AFF0EE124E96EFF0EE220EA6EED66B4
:101BB00007D02F0EEF6404D03A0EEF6001D0F32A65
:021BC000120011
:0E1BC200000EF36E00EE00F0060E01D81200C9
:101BD000EA6002D0EE6AFCD7F350E9601200EE6AC8
:021BE000FCD730
:0E1BE20015EE00F025EE00F0F86A0F9C1CECEA
:0E1BF0000BF030EC0EF05EEC0AF0FBD71200AA
:021BFE00FF0ED8
:101C0000E350ACBA04D0AF6AAB8EAC8A949CACA261
:0A1C1000FED7AD6EF36EF46A120009
:061C1A00036A080EE76EEC
:101C2000D890073603360C50035C02E3036E072A94
:061C3000E72EF7D71200B9
:0A1C36003031323334353637383997
:071C40006162636465660048
:081C48001F0EC514FDE1C75099
:061C5000040BFAE1120092
:091C560046696E20696E69740094
:021C6000120070
:021C6200FEFF83
:091C640046696E5F696E69740047
:031C6D004261745D
:101C700074657269653A004D6F64653A00536F6E22
:101C800061723A00FFFFFFFFFFFFFFFF000000004F
:020000040030CA
:0100010008F6
:010003001EDE
:010005008179
:0100060001F8
:00000001FF
