:020000040000FA
:060000006BEF0DF0120091
:020006001200E6
:0600080027EF08F01200D2
:02000E000200EE
:10001000321B00008000000023000000301B0000A5
:08002000B9000000020000001D
:0800280050EC05F0FB0EDBCFEC
:10003000F3FFDB06F35000090AE09EEC05F0FA0E30
:1000400009EC06F0F3E1151CF1E1010E01D0000E00
:100050007FEF05F050EC05F03B0EE12402E3E16890
:10006000E652E16E010EDB6A020EDB6AF90EDBCFAF
:10007000F6FFFA0EDBCFF7FFFB0EDBCFF8FF080031
:10008000F550DF6EDF5002E1A3EF04F0250EDF5CD8
:1000900002E096EF04F0030EDB6A040EDB6A050E45
:1000A000DB6A060EDB6A070EDB6AB8EC04F02D0E85
:1000B000DF5C0CE02B0EDF5C09E0200EDF5C06E06D
:1000C000230EDF5C03E0300EDF5C1AE1DF50300A04
:1000D00014E0130A0FE0030A0AE00B0A05E0060A1F
:1000E000E4E1030EDB80E1D7030EDB82DED7030EF3
:1000F000DB84DBD7030EDB86D8D7030EDB88D5D7AE
:100100002A0EDF5C1BE1B4EC04F002EC05F010E019
:10011000030EDB8008680968130EDBCF0DF0140EA8
:10012000DBCF0EF0E4EC0CF0040E06C0DBFF03D0D6
:10013000130EEBEC04F0B8EC04F00BD0090EDB6A04
:1001400059EC05F003E0CDEC05F0FAD7090EEBEC25
:1001500004F0030EDBB0DB982E0EDF5C1BE1B8EC85
:1001600004F02A0EDF5C0BE1B4EC04F002EC05F0C5
:1001700003E1130E3DEC05F0B8EC04F00BD0090ED2
:10018000DB6A59EC05F003E0CDEC05F0FAD7090E77
:100190003DEC05F0680EDF5C07E1B8EC04F0680E9A
:1001A000DF5C1DE1030E18D0740EDF5C17E07A0EE1
:1001B000DF5C14E0480EDF5C06E0540EDF5C03E019
:1001C0005A0EDF5C02E1020E07D06C0EDF5C03E02A
:1001D0006A0EDF5C04E1010E90EC05F0C9DBDF5034
:1001E0006E0A01E17FD31E0A01E192D1200A01E1EA
:1001F0008FD13F0A01E149D11A0A01E146D10D0A26
:1002000001E143D1200A01E140D13A0A01E13DD1A7
:10021000200A01E13AD1260A01E135D10D0A01E1B6
:1002200032D11A0A01E1D9D0200A4AE0300A1FE08F
:10023000460A0EE0250A01E083D3D950F90FE96E92
:10024000FF0EDA20EA6E010EEE5E000EEE5AEE5A56
:100250009EEC05F0250EE66E95DB03E1151C01E131
:1002600069D39AEC05F001E26BD3DB2A69D3080E5F
:10027000DB6A040EDB50010806E2040EDB0462ECCC
:1002800005F0DB508BDB080EDB5009E0030EDB5082
:10029000010B05E172DB01E04DD3080EDB6A64DB84
:1002A000EFCFDFFF12EC06F003E1151C01E142D3B2
:1002B0009AEC05F001E3DB2A60DB01E141D33AD39C
:1002C000070EDB5002080FE1DEEC05F0030EA5EC93
:1002D00005F00E0EEECFDBFF0F0EEECFDBFF100EA4
:1002E000EECFDBFF20D0F70EDBCF17F0F80EDBCF21
:1002F00018F0020E175E000E185AF70E17C0DBFF3B
:10030000F80E18C0DBFF17C0E9FF18C0EAFF95EC34
:1003100005F0166A0E0E14C0DBFF0F0E15C0DBFFD2
:10032000100E16C0DBFF0E0EDBCFE6FF0F0EDBCF8D
:10033000E6FF100EDBCFE6FFBFEC0CF0E552E55216
:10034000E552130E07C0DBFF140E08C0DBFF060EDC
:10035000DB5005E0130ED9EC05F001E26ADBFDECA1
:1003600005F002E2130E37DBC0EC05F006E0040EE8
:10037000D9EC05F002E2050E2EDB030EDBB005D052
:10038000FCDA01E0D7D2080EDB6A090EDB6A0E0E3A
:10039000DBCFF6FF0F0EDBCFF7FF100EDBCFF8FF42
:1003A0000800F550DF6EDF5014E003EC06F011E2B8
:1003B00012EC06F003E1151C01E1BCD2BBDB01E34A
:1003C000DB2A090EDB2AD9500E0FE96E000ECBDBBB
:1003D000E7D7D3DA01E1B4D2ADD2C6DA110EEECF4F
:1003E000DBFF120EEDCFDBFF110EDBCFE6FF120EAF
:1003F000DBCFE6FFB1EC0CF0E552E552130EF3CF84
:10040000DBFF140EF4CFDBFF060EDB5004E0130E0F
:10041000D0DB01E20EDBFDEC05F002E2130EDBDACD
:10042000AFDB05E0040EC5DB02E2050ED4DA030EF5
:10043000DBB005D0A2DA01E07DD2080EDB6A090E3E
:10044000DB6A110EDBCFE9FF120EDBCFEAFFEFCF45
:10045000DFFFDF5014E0D7DB12E2E4DB03E1151C21
:1004600001E168D267DB01E3DB2A090EDB2A110E0A
:10047000DB2ADBCFE9FF120EE8E3DB2AE6D77DDAE1
:1004800001E15ED257D2030EDB8E070EDB0410E1D2
:1004900095DB040E5ADB0A0EEECFDBFF0B0EEECF20
:1004A000DBFF0C0EEECFDBFF0D0EEECFDBFF6CD0D3
:1004B000070EDB5003082CE1030EDBAE0DD0B2DAE1
:1004C000020E76DAEFCF14F0156A166A176A14AEC8
:1004D00039D01568166835D0F70EDBCF15F0F80E59
:1004E000DBCF16F0020E155E000E165AF70E15C081
:1004F000DBFFF80E16C0DBFF15C0E9FF16C0EAFFF0
:10050000EFCF14F00A0E14C0DBFF0B0EDB6A38D0FD
:10051000070EDB50020809E1030EDBAE04D059DB05
:1005200016AE10D00ED055DB0DD0030EDBAE12D0C0
:1005300079DA020E3DDAF9DA166A176A15AE02D0D8
:1005400016681768E2DA0C0E16C0DBFF0D0E17C036
:10055000DBFF1AD0F70EDBCF16F0F80EDBCF17F06B
:10056000020E165E000E175AF70E16C0DBFFF80ECD
:1005700017C0DBFF16C0E9FF17C0EAFFD6DAC5DAFD
:100580000C0EDB6A0D0EDB6A060EDB5005E1010E78
:10059000F36E050EF3CFDBFF150EDB6A160EDB6A7A
:1005A000D950370F146E000EDA20156E390E14C0B4
:1005B000DBFF3A0E15C0DBFF380EDB6A080EDB6A84
:1005C0000A0EAEDADF50780A12E0200A10E0280A9C
:1005D0000CE0200A0AE03F0A06E00D0A02E0200AC9
:1005E00008E1020E05D0080E03D0080EDF26100E1B
:1005F00097DA030EDBBE02D0DB92DB94DB50800B7C
:1006000024E08ADAD890030EEB50000A08E6000EC8
:10061000EE5C000EEE58000EEE58000EEE5815E29D
:1006200013DA0B680C680D680E6879EC0CF00A0E92
:1006300002C0DBFF0B0E03C0DBFF0C0E04C0DBFFB0
:100640000D0E05C0DBFF2D0E08D0030EDBA202D07D
:100650002B0E03D0DBA408D0200EF36E170EF3CFC1
:10066000DBFF150EDB2A02D0170EDB6A050EDB500E
:1006700003E1B7D901E189D00E0E146E1B0E156E81
:10068000000E166E070EDBCF17F0186A196A1A6A89
:1006900017C00BF018C00CF019C00DF01AC00EF006
:1006A000D3D911EC0DF014500224F36E1550032031
:1006B000F46E16500420F86EF4CFF7FFF3CFF6FF78
:1006C0000800090EF5CFDBFF580EDF5C0FE1610E6D
:1006D000F36E090E7BD90AE3200E146E090EDBCFF0
:1006E000E7FF1450E75E090EE7CFDBFF070EDBCF15
:1006F00014F0156A166A176A0FDA14C00BF015C0E9
:100700000CF016C00DF017C00EF0EECF06F0EECFD5
:1007100007F0EECF08F0EFCF09F011EC0DF009C0B3
:10072000EDFF08C0EDFF07C0EDFF06C0EFFF390E7B
:10073000DBCFE9FFDB063A0EDBCFEAFF01E2DB06A7
:10074000090EDBCFEFFF150EDB2A4BD995E1030E27
:10075000DBA61DD06F0EDF5C06E1C1D918E3150ED4
:10076000DB285BDA14D0780EDF5C09E0580EDF5C22
:1007700006E0620EDF5C03E0420EDF5C08E1020E81
:10078000F36E160EF3CFDBFF02D0150EDB6A030EFD
:10079000DB50100B0EE0040EDBCF14F0050EDB5027
:1007A000D880145406E2060EDB5003E1040EDB5041
:1007B00034DA95D90AE2050EDBCFE7FF150EDB50E0
:1007C000E75E050EE7CFDBFF02D0050EDB6A040E05
:1007D000DBCF14F0160E45D9D880145414E2160E4F
:1007E000DBCFE6FF150EDBCFE6FF040EDBCFE6FF27
:1007F000050EDB50E552E75CE552D880E754E55240
:10080000D880E7545FD9030EDB50010B0BE1080ED3
:10081000DB5008E0B2D801E08DD0080EDB50BED826
:10082000080EDB6A170EDB5007E088D9170EF1D9E6
:1008300003E1151C01E17ED0160EDB5016E07ED9D7
:10084000300EE66E9FD802E1151C74E077D9DFCF39
:10085000E6FF80EC0BF0E552E552E552F4CF15F0DF
:100860000001F31C02E1151C65E0050EDBCF14F05E
:10087000160EDB50D880145409E2050EDBCFE7FFDB
:10088000160EDB50E75E050EE7CFDBFF300EE66E9F
:10089000050ECBD94FE1390EDB2ADBCFE9FF3A0E4B
:1008A00001E3DB2ADBCFEAFF090EEFCFDBFFDB50F2
:1008B0000EE044D9090EADD902E1151C3BE0390E1A
:1008C000DB2ADBCFE9FF3A0EEDE3DB2AEBD755D885
:1008D00031E1160EDBCFE6FF080EC3D8E552E72460
:1008E0005DD82ED0070EDB50030A1CE0010A14E08D
:1008F000030A07E07BD9DBCFEEFF020EDBCFEDFF73
:100900001FD0F5D8196A17AE02D0186819682CD80C
:10091000BCD819C0EEFF14D0EAD817BE186824D886
:10092000B4D80ED063D9DBCFEFFF0AD07BD905E175
:10093000151C03E1F368F46810D0FCD801E3DB2A4E
:1009400079D93FEF00F0010EDBCF14F0020EDBCFC0
:1009500015F014C0F3FF15C0F4FF3B0EE15C02E29A
:10096000E16AE552E16ECBD029D9020EA5EF05F080
:1009700061D90800F550DF6E1200200EE66E080EF9
:1009800015EF06F080EC0BF0E552E552E552F3CF9F
:1009900014F0F4CF15F00001F31C1200146E156A68
:1009A000D950010F4DD91450EE261550ED221200EA
:1009B000185E000E195AF70E18C0DBFFF80E19C0AA
:1009C000DBFF18C0E9FF19C0EAFF1200DBCFF4FF1C
:1009D000F350F45C1200DB50E76E040EE7CFDBFF50
:1009E00012000A0EDBCF14F00B0EDBCF15F00C0E4D
:1009F000DBCF16F00D0EDBCF17F0145015101610CC
:100A000017101200130EEECFDBFF140EEDCFDBFF3D
:100A1000130EDBCF14F0140EDBCF15F00001800EA7
:100A200015141200F70EDBCF18F0F80EDBCF19F01B
:100A30001200050EDB50E66ED950130F01D9E552B6
:100A4000E750EE6EED6A12000A0EDBCF06F00B0ED9
:100A5000DBCF07F00C0EDBCF08F00D0EDBCF09F07B
:100A60001200DBCFE6FF150EDBCFE6FF050EDB50F5
:100A7000E552E724E552E7241200DB50CED8010E00
:100A8000F36E060EF3CFDBFF1200EE50EFCFEAFF5E
:100A9000E96E16C0EEFF17C0EEFF18C0EEFF1200A1
:100AA000D9CFE6FFDACFE6FFE1CFD9FFE2CFDAFF19
:100AB0001200DFCFE6FFE66A49EC0DF0E552E552A1
:100AC000F3501200E76E080EE7CFDBFF1200EECF07
:100AD00014F0EECF15F0EFCF16F0176A1200050EE6
:100AE000DBCF14F0150EDB50D88014541200010E29
:100AF000DBCF16F0020EDBCF17F0186A1200E552BA
:100B0000E5CFDAFFE7CFD9FF12000A0E14C0DBFFF2
:100B10000B0E15C0DBFF1200D9500A0F20EF06F0B4
:100B2000F36E070EF3CFDBFF1200EECF14F0EFCF22
:100B300015F01200010EDB2A020E1200FC0EDBCFB4
:100B4000E6FFFD0EDBCFE6FF1200145E000E155A25
:100B5000F70E14C0DBFFF80E15C0DBFF14C0E9FF71
:100B600015C0EAFF1200DA20EA6EEF2AEECFF6FF98
:100B7000000EEF22EECFF7FFEF22EECFF8FF1200CC
:100B8000040EDBCFE6FF130EDB50E552E75C9ADF85
:100B9000DB5004DF060EDB501200090EDB500A0D9D
:100BA000F350DF24D00FE76E090EE7CFDBFFB8EF7D
:100BB00004F0DB50F36E050EE6EF04F0F70EDBCF2A
:100BC00014F0F80EDBCF15F01200DFCFE6FFC2EF16
:100BD00004F028DF030EECDE67EF05F014EC00F004
:100BE000E552E552E552E55200091200BDDEEE5035
:100BF000EFCFEAFFE96E010E1200130EDB50F36E29
:100C0000040EE6EF04F0040EDB50F36E090EE6EF7F
:100C100004F0DBCFE6FFC2EF04F0E76E050EE7CF8E
:100C2000DBFF12008BDFE5EF05F0DBCFE6FF86DFB1
:100C3000EEEF05F0D950F90FE96EFF0EB3EF05F0B6
:0A0C4000E96E000EDA20EA6E1200E1
:060C4A00800EC76E280EAB
:100C5000C66EC56A130EC86E1200D9CFE6FFE1CF8B
:100C6000D9FF1F0EC51403E1C750040B01E0F9D7EB
:100C7000C580C5B0FED7FE0EDB50C96EC7B0FED72B
:100C8000C5BCFED71F0EC51403E1C750040B01E01D
:100C9000F9D7C584C5B4FED79E96000E00D0E552A4
:100CA000E7CFD9FF1200D9CFE6FFE1CFD9FF060E7B
:100CB000E126040EDB6A0A0EF36E050EF3CFDBFFAE
:100CC000FE0EDBCFE6FFC2EC0BF0E552E76E040E42
:100CD000E7CFDBFF050EDB06040EDB500EE0050E52
:100CE000DBCF14F0000EE76E1418E8AE02D0143417
:100CF00003D0E750D8801454E3E30A0EF36E050ED8
:100D0000F3CFDBFFFD0EDBCFE6FFFE0EDBCFE6FF12
:100D100068EC09F0E552E552020EF3CFDBFF030E5B
:100D2000F4CFDBFF050EDB06030EDB500EE0050EF5
:100D3000DBCF14F0000EE76E1418E8AE02D01434C6
:100D400003D0E750D8801454DDE3030EDB5002E0FB
:100D5000DF6806D0020EDB50E76E010EE7CFDBFF47
:100D60000A0EF36E050EF3CFDBFFFD0EDB28E66EF9
:100D7000FE0EDBCFE6FF68EC09F0E552E552020E0D
:100D8000F3CFDBFF030EF4CFDBFF050EDB06030E14
:100D9000DB500EE0050EDBCF14F0000EE76E1418EA
:100DA000E8AE02D0143403D0E750D8801454DDE309
:100DB000030EDB5003E0010EDB6803D0020EDB50B4
:100DC000DF6EDECF14F0DDCF15F014C0F3FF15C0D9
:100DD000F4FF00D0060EE15C02E2E16AE552E16E4A
:100DE000E552E7CFD9FF1200D9CFE6FFE1CFD9FF17
:100DF000020EE126DF6ADE520A0EDD6EFE0EDBCF4A
:100E0000E6FFC2EC0BF0E552DF6E010EDB06DF50B1
:100E10000EE0010EDBCF14F0000EE76E1418E8AE02
:100E200002D0143403D0E750D8801454E7E3DE52E4
:100E30000A0EDD6EFD0EDBCFE6FFE66AFE0EDBCFAF
:100E4000E6FFE7EC0AF0E552E552E552DF6E010EEF
:100E5000DB06DF500EE0010EDBCF14F0000EE76E74
:100E60001418E8AE02D0143403D0E750D8801454DC
:100E7000E1E3020EE15C02E2E16AE552E16EE55275
:100E8000E7CFD9FF1200D9CFE6FFE1CFD9FFE65275
:100E9000DF6A1F0EC51403E1C750040B01E0F9D748
:100EA000C580C5B0FED7FE0EDB50C96EC7B0FED7F9
:100EB000C5BCFED71F0EC51403E1C750040B01E0EB
:100EC000F9D7DFCF14F0156A14BE1568FC0EDB509D
:100ED0001424E96EFD0EDB501520EA6EEF50C96E4A
:100EE000C7B0FED7C5BCFED7DF50DF2A146E156A27
:100EF00014BE1568FC0EDB501424E96EFD0EDB50A9
:100F00001520EA6EEF50D6E11F0EC51403E1C7505D
:100F1000040B01E0F9D7C584C5B4FED79E96000E38
:100F200000D0E552E552E7CFD9FF1200D9CFE6FF56
:100F3000E1CFD9FFE652DF6A1F0EC51403E1C750A7
:100F4000040B01E0F9D7C580C5B0FED7FE0EDB2843
:100F5000C96EC7B0FED7C5BCFED71F0EC51403E1CE
:100F6000C750040B01E0F9D7C586C7A0FED7DFCF75
:100F700014F0156A14BE1568FC0EDB501424E96EDB
:100F8000FD0EDB501520EA6EC9CFEFFFC95002E01D
:100F9000C59A01D0C58AC588C5B8FED7DF50DF2AFB
:100FA000146E156A14BE1568FC0EDB501424E96E2D
:100FB000FD0EDB501520EA6EEF50CFE11F0EC51479
:100FC00003E1C750040B01E0F9D7C584C5B4FED7CF
:100FD0009E96000E00D0E552E552E7CFD9FF1200F1
:100FE000D9CFE6FFE1CFD9FFE652DF6A1F0EC51465
:100FF00003E1C750040B01E0F9D7C580C5B0FED7A7
:10100000FE0EDB50C96EC7B0FED7C5BCFED71F0EA3
:10101000C51403E1C750040B01E0F9D7FD0EDB5006
:10102000C96EC7B0FED7C5BCFED71F0EC51403E1FD
:10103000C750040B01E0F9D7C584C5B4FED79E960E
:0E104000DF5000D0E552E552E7CFD9FF120095
:02104E00DACFF7
:10105000E4FFE2CFDAFFE9CFE4FFEACFE4FFF6CF27
:10106000E4FFF7CFE4FFF5CFE4FFF3CFE4FFF4CFE5
:10107000E4FFFACFE4FF00EE00F0140EE80403E30F
:10108000EECFE4FFFBD700EE14F0070EE80403E315
:10109000EECFE4FFFBD7E6529EA258D09E92640E9C
:1010A00000019F5D04E100019F6BC28202D000013C
:1010B0009F2B0A0E0001A15D34E10001AE0531E174
:1010C0000001A16B020EE66EE00EE66E53EC06F038
:1010D000E552E552F3CFB0F0E66AE00EE66EF4ECCE
:1010E00006F0E552E552510EE66EE00EE66EF4ECC7
:1010F00006F0E552E5520001B151E66EE66A7B0E5C
:101100001B6E1A0E1C6E1D6A1BC0E6FF1CC0E6FF9C
:101110001DC0E6FF34EC0BF01E6E050EE15E1E50A6
:1011200002D00001A12B0001A25100080FE2000132
:10113000A22B0001A2511B6E1C6A1C3404E21B503E
:10114000C808000E1C5402E20001A26B9E50100B56
:1011500004E09D50100B01E09D989EAC6CD09E9CCD
:10116000C4CFB5F00001A051EA6A970FE96E000EF6
:10117000EA22B5C0EFFF0001A02B0001070EA01767
:101180000001B36BB46B0001AD6B080E0001AD5DE7
:1011900013E20001AD51EA6A970FE96E000EEA22F0
:1011A000EF501B6E1C6A1B500001B3271C5000013E
:1011B000B4230001AD2BE9D7B3C01BF0B4C01CF0C1
:1011C000030ED8901C321B32E804FBE11BC0B3F0C5
:1011D0001CC0B4F00001960EB35D000EB45901E2DC
:1011E0008A8A0E0E0001B3250001B36F000E0001C4
:1011F000B4210001B46F040E0F0B000105E0D8907C
:10120000B433B333E806FBE1B3C0E6FFB4C0E6FF96
:101210006A0E1B6E1A0E1C6E1D6A1BC0E6FF1CC0F8
:10122000E6FF1DC0E6FF34EC0BF01E6E050EE15E1E
:101230001E50B0C0AFF0F2A227D0F2920001A2512E
:1012400023E10001010EA26FA20EE66E2DEC06F066
:10125000E552000901E0F8D7B60EE66E000EE66E24
:10126000A20EE66E96EC07F0E552E552E552330E1B
:101270000001B75D09E10001AE5104E10001010E7A
:10128000AE6F02D00001AE6BE55200EE1AF0070E11
:10129000E80403E3E5CFEDFFFBD700EE13F0140EF7
:1012A000E80403E3E5CFEDFFFBD7E5CFFAFFE5CF99
:1012B000F4FFE5CFF3FFE5CFF5FFE5CFF7FFE5CF8F
:1012C000F6FFE5CFEAFFE5CFE9FFE5CFDAFF110052
:1012D000D9CFE6FFDACFE6FFE1CFD9FFE2CFDAFFE1
:1012E00090EC0DF0C580C5A003D0FDD7C5B0FED7EA
:1012F000A1B63BD0FD0E57D804E0C584C5B4FED7D7
:101300001ED0C5BC3DD0FC0E4ED804E0C584C5B48B
:10131000FED715D0C5BC2FD0C582C5A203D0FDD73E
:10132000C5B2FED7A1B621D0FD0EDB28E66E40EC9B
:101330000CF0E552000905E0C584C5B4FED7FD0EEA
:1013400023D0C5BC14D0C586C5B6FED7C58AC5880E
:10135000C5A803D0FDD7C5B8FED7C584C5A403D0A2
:10136000FDD7C5B4FED7A1A612D0F3680ED0C584B0
:10137000C5B4FED703D0C584C5B4FED7FE0E04D0D5
:10138000C584C5B4FED7FE0EF36EF46806D0C9500E
:10139000146E156AF36E15C0F4FFE552E5CFDAFF5F
:1013A000E7CFD9FF1200DBCFE6FF40EC0CF0E552AF
:0413B000000912001E
:0C13B4000001AE6B0001AF6B0001B16BDB
:1013C0000001320EB26F45EC0AF0870E146E1A0E51
:1013D000156E166A14C0E6FF15C0E6FF16C0E6FFDC
:1013E00034EC0BF0E552E552E5520001AF1DE66E1C
:1013F000400EE66EF0EC07F0E552E5520001AE0556
:101400003EE1020E0001B15D18E10001B051320869
:1014100011E20001B051146E156AD890155004E61F
:10142000960E145C000E155805E2B2C0BEFFB2C0A5
:10143000BBFF02D0BE6ABB6A21D00001B0512808B0
:1014400014E20001B051146E156AD890155004E6EC
:10145000960E145C000E155808E20001010EB16FE3
:10146000B2C0BEFFB2C0BBFF09D00001B10506E1AA
:101470000001020EB16FBE6ABB6A00D004D0BE6A22
:0A148000BB6A0001AF6BB1D7120088
:06148A008F0ED31470095F
:10149000D36E939A93808182929C929E32D816D872
:1014A00009D825EC06F0808C808EF19CF288F28CB5
:1014B000F28E1200948CB896AC94AC98B06A190E67
:1014C000AF6EAB8EAC8A9D889E981200939AF00EF8
:1014D000C1140C09C16ECF0EC1140009C16EF80E03
:1014E000C0140109C06EC70EC0141809C06EC30E27
:1014F000C2140809C26EC09EC2809E9C9D8CF28C54
:10150000120094929494CA827C0ECB6EBE6ABB6A1F
:10151000BD98BD9ABA98BA9ABD86BD84BA86BA8477
:10152000870ECA144809CA6ECA849D829F8212001F
:101530000E0EF66E000EF76E000EF86E000109003A
:10154000F550A86F0900F550A96F03E1A86701D015
:101550003DD00900F550A36F0900F550A46F0900B4
:10156000F550A56F09000900F550E96E0900F55026
:10157000EA6E090009000900F550A66F0900F55050
:10158000A76F09000900F6CFAAF0F7CFABF0F8CFAC
:10159000ACF0A3C0F6FFA4C0F7FFA5C0F8FF0001A0
:1015A000A65302E1A75307E00900F550EE6EA60727
:1015B000F8E2A707F9D7AAC0F6FFABC0F7FFACC0A7
:0E15C000F8FF0001A807000EA95BBFD71200BC
:0215CE00D9CF73
:1015D000E6FFDACFE6FFE1CFD9FFE2CFDAFF90EC0A
:1015E0000DF0C580C5A003D0FDD7C5B0FED7A1B60C
:1015F0002BD0FD0E32D804E0C584C5B4FED711D07F
:10160000C5BC15D0FC0E29D804E0C584C5B4FED7EE
:1016100008D0C5BC08D0FB0E20D80EE0C584C5B4E8
:10162000FED7FD0E14D0C584C5B4FED703D0C58443
:10163000C5B4FED7FE0E0BD0C584C5A403D0FDD71C
:10164000C5B4FED7A1A602D0FF0E01D0000EE55210
:10165000E5CFDAFFE7CFD9FF1200DBCFE6FF40ECA2
:081660000CF0E5520009120034
:08166800D9CFE6FFDACFE6FF5F
:10167000E1CFD9FFE2CFDAFFE652E652E652E65278
:10168000D950FB0F146EFF0EDA20156E14C0DEFF6A
:10169000DD6EDECFE6FFDDCFE6FFFB0EDBCFE6FF44
:1016A000FC0EDBCFE6FFFD0EDBCFE6FFB9C0E6FFA9
:1016B000BAC0E6FF2AEC00F0146E070EE15C02E20D
:1016C000E16AE552E16E1450020EF3CFDBFF030E28
:1016D000F4CFDBFF020EDBCF14F0030EDBCF15F0EF
:1016E00014C0F3FF15C0F4FF040EE15C02E2E16AEE
:1016F000E552E16EE552E5CFDAFFE7CFD9FF120000
:10170000D9CFE6FFDACFE6FFE1CFD9FFE2CFDAFFAC
:10171000FB0EDBCF14F0FC0EDBCF15F00001800ECA
:1017200015141AE1FB0EDBCFE9FFFC0EDBCFEAFF5D
:10173000EECFF3FFEDCFF4FFEE2A000EEF22F3CF52
:10174000E9FFF4CFEAFFFD0EDBCFEFFFEF50156AA4
:10175000F36E15C0F4FF10D0FB0EDB50FE0806E15F
:10176000FD0EDBCFE6FF79EC0DF005D0FD0EDBCFF3
:10177000E6FF03EC00F0E552E552E5CFDAFFE7CFF4
:04178000D9FF12007B
:0C178400D9CFE6FFDACFE6FFE1CFD9FFB6
:10179000E2CFDAFF90EC0DF0C580C5A003D0FDD7F5
:1017A000C5B0FED7A1B61FD027D804E1C584C5B403
:1017B000FED70FD0C5AC0FD0C582C5A203D0FDD7D0
:1017C000C5B2FED7A1B60FD017D8F4E1C584C5B411
:1017D000FED7FD0E0BD0C584C5A403D0FDD7C5B47C
:1017E000FED7A1A602D0FF0E01D0000EE552E5CF34
:1017F000DAFFE7CFD9FF1200FD0EDBCFE6FF40ECAA
:081800000CF0E552FF08120094
:08180800D9CFE6FFE1CFD9FFC3
:101810009DB8FED7FE0EDB50AD6E9EA8FED7E552FA
:10182000E7CFD9FF1200D9CFE6FFE1CFD9FF000102
:10183000AD6B0001AD51E76EFD0EDBCFE9FFFE0E93
:10184000DBCFEAFFE750E926000EEA22EF5014E072
:101850000001AD51E76EFD0EDBCFE9FFFE0EDBCFE1
:10186000EAFFE750E926000EEA22EF50E66ECCDFF1
:10187000E5520001AD2BDDD7E552E7CFD9FF1200CD
:10188000D9CFE6FFDACFE6FFE1CFD9FFE2CFDAFF2B
:10189000FD0EDB50C96EC6AE02D0FF0E24D00F0E77
:1018A000C61408080FE00F0EC6140B080BE0C6881C
:1018B0009EA6FED7C750040B03E1C750010B10E0F2
:1018C000000E11D00F0EC614080804E00F0EC61447
:1018D0000B0809E1C7B0FED790EC0DF0C5AC02D003
:1018E000FE0E01D0000EE552E5CFDAFFE7CFD9FFBB
:0218F0001200E4
:0E18F20006500B02F3CF02F0F4CF03F00C020D
:10190000F3500326000EF420046E06500D02F3502F
:101910000426000EF420056E06500E02F350052634
:1019200007500B02F3500326F4500422000E052248
:1019300007500C02F3500426F450052207500D0204
:10194000F350052608500B02F3500426F4500522EC
:1019500008500C02F350052609500B02F3500526DF
:02196000120073
:0E196200FE0EE3CFE9FFFF0EE3CFEAFFF36ACC
:10197000F46AEE5203E0F34AF42AFBD71200FF0E9A
:10198000E3CFF8FFE552FF0EE3CFF7FFE552FF0E7E
:10199000E3CFF6FFE552E66AE66AE66A0900F55229
:1019A00009E0FD0EE32A05E1FE0EE32A02E1FF0E47
:1019B000E32AF4D7FD0EE3CF07F0FE0EE3CF08F0E5
:0819C000FF0EE3CF09F0120055
:0819C80009C013F008C012F081
:1019D00008500D02F4CF07F0F3CF06F009500E02C5
:1019E000F4CF09F0F3CF08F00D02F3500726F450BE
:1019F0000822E86A092212500E02F3500726F4501A
:101A00000822E86A09220EAE0AEF0DF01250085EB5
:101A10001350095A13AE000C0D50085E0E50095AAF
:021A2000000CB8
:0E1A2200056A046A036A026A200EE76ED89015
:101A300006360736083609360236033604360536CA
:101A40000B50025C0C5003580D5004580E500558B2
:101A500009E30B50025E0C50035A0D50045A0E500D
:0A1A6000055A062AE72EE4D712000B
:061A6A0042617474657214
:101A70006965203A202564560D0A004D6F64652083
:101A80003A2025640D0A0046696E20696E69740D5E
:021A90000A004A
:0E1A9200F36AF46AFF0EE124E96EFF0EE22013
:101AA000EA6EED6607D02F0EEF6404D03A0EEF60B9
:061AB00001D0F32A120030
:0A1AB600000EF36E00EE00F0060EC5
:101AC00001D81200EA6002D0EE6AFCD7F350E96058
:061AD0001200EE6AFCD7D3
:0A1AD60015EE00F025EE00F0F86AAE
:101AE000019C98EC0AF097EC0DF0DAEC09F0FBD7CA
:021AF0001200E2
:0E1AF200FF0EE350ACBA04D0AF6AAB8EAC8AE4
:0E1B0000949CACA2FED7AD6EF36EF46A120098
:021B0E00303174
:0F1B1000323334353637383961626364656600C5
:0E1B20001F0EC514FDE1C750040BFAE11200C0
:021B2E001200A3
:021B3000FEFFB6
:0E1B320042617474657269653A004D6F6465B6
:101B40003A00536F6E61723A00FFFFFFFFFFFFFF25
:051B5000FF0000000091
:020000040030CA
:0100010008F6
:010003001EDE
:010005008179
:0100060001F8
:00000001FF
