:020000040000FA
:06000000CCEF06F0120037
:020006001200E6
:0600080014EF00F01200ED
:02000E000200EE
:10001000EA0D00008000000037000000DE0D000047
:08002000B70000000C00000015
:08002800DACFE4FFE2CFDAFFBA
:10003000E9CFE4FFEACFE4FFF6CFE4FFF7CFE4FF38
:10004000F5CFE4FFF3CFE4FFF4CFE4FFFACFE4FF12
:1000500000EE00F0100EE80403E3EECFE4FFFBD760
:1000600000EE13F0020EE80403E3EECFE4FFFBD74B
:10007000E6529EA28ED09E92640E0001B45D04E111
:100080000001B46BC28202D00001B42B0A0E000141
:10009000B65D01E07CD00001C00501E078D0000130
:1000A000B66B020EE66EE00EE66E4DEC02F0E55227
:1000B000E552F3CFD4F0E66AE00EE66EEEEC02F025
:1000C000E552E552510EE66EE00EE66EEEEC02F001
:1000D000E552E552A40EE66E000EE66E40EC06F028
:1000E000E552E552640E106E10C00CF0D4C007F05B
:1000F000DAEC06F00750300FE66E31EC06F0E55210
:10010000640E116E11C00CF0D4C007F0DAEC06F0EA
:1001100003C010F00A0E126E12C00CF010C007F0EF
:10012000DAEC06F00750300FE66E31EC06F0E552DF
:100130000A0E106E10C00CF0D4C007F0DAEC06F016
:100140000350300FE66E31EC06F0E5520D0EE66E10
:1001500031EC06F0E5529C0EE66E000EE66E40ECC9
:1001600006F0E552E5520A0E106E10C00CF0C1C048
:1001700007F0DAEC06F00350300FE66E31EC06F0D3
:10018000E5520D0EE66E31EC06F0E55202D00001AC
:10019000B62B9E50100B04E09D50100B01E09D9873
:1001A0009EACECD09E9CC4CFCFF00001B551EA6A62
:1001B000AC0FE96E000EEA22CFC0EFFF0001B52BB5
:1001C0000001070EB5170001CD6BCE6B0001D36B9C
:1001D000080E0001D35D13E20001D351EA6AAC0FAF
:1001E000E96E000EEA22EF50106E116A1050000105
:1001F000CD2711500001CE230001D32BE9D7CDC06C
:1002000010F0CEC011F0030ED89011321032E80475
:10021000FBE110C0CDF011C0CEF00001960ECD5D17
:10022000000ECE5901E28A8A910EE66E000EE66E4D
:1002300040EC06F0E552E552CDC010F0CEC011F012
:10024000640E0B6E0C6A10C006F011C007F0A6EC2D
:1002500006F006C010F007C011F0300E1024E66E54
:1002600031EC06F0E552CDC010F0CEC011F0640EB6
:100270000B6E0C6A10C006F011C007F0A6EC06F079
:1002800002C010F003C011F00A0E0B6E0C6A10C011
:1002900006F011C007F0A6EC06F006C010F007C08B
:1002A00011F0300E1024E66E31EC06F0E552CDC0B0
:1002B00010F0CEC011F00A0E0B6E0C6A10C006F0E2
:1002C00011C007F0A6EC06F002C010F003C011F058
:1002D000300E1024E66E31EC06F0E5523A0EE66E72
:1002E00031EC06F0E5520E0E0001CD250001CD6F78
:1002F000000E0001CE210001CE6F040E0F0B000195
:1003000005E0D890CE33CD33E806FBE1CDC010F048
:10031000CEC011F00A0E0B6E0C6A10C006F011C0B0
:1003200007F0A6EC06F006C010F007C011F0300E82
:100330001024E66E31EC06F0E552CDC010F0CEC0D0
:1003400011F00A0E0B6E0C6A10C006F011C007F017
:10035000A6EC06F002C010F003C011F0300E10241D
:10036000E66E31EC06F0E552560EE66E31EC06F024
:10037000E5520D0EE66E31EC06F0E552F2A23BD0EE
:10038000E668400EE66EEAEC03F0E552E552F292C2
:10039000310EE66EE66AA20EE66E3DEC03F0E55223
:1003A000E552E552A20EE66E27EC02F0E552000996
:1003B00001E0F8D7D00EE66E000EE66EA20EE66EF5
:1003C00090EC03F0E552E552E552330E0001D15DA9
:1003D00011E1FE0EE66E400EE66EEAEC03F0E55229
:1003E000E5520001C05104E10001010EC06F02D0CE
:1003F0000001C06BFFD7E55200EE14F0020EE804D6
:1004000003E3E5CFEDFFFBD700EE0FF0100EE8049D
:1004100003E3E5CFEDFFFBD7E5CFFAFFE5CFF4FF30
:10042000E5CFF3FFE5CFF5FFE5CFF7FFE5CFF6FF2B
:0E043000E5CFEAFFE5CFE9FFE5CFDAFF1100E7
:02043E00800E2E
:10044000C76E280EC66EC56A130EC86E1200D9CFCD
:10045000E6FFE1CFD9FF1F0EC51403E1C750040B1F
:1004600001E0F9D7C580C5B0FED7FE0EDB50C96EDE
:10047000C7B0FED7C5BCFED71F0EC51403E1C750D9
:10048000040B01E0F9D7C584C5B4FED79E96000ED3
:1004900000D0E552E7CFD9FF1200D9CFE6FFE1CF78
:1004A000D9FF060EE126040EDB6A0A0EF36E050E76
:1004B000F3CFDBFFFE0EDBCFE6FFEFEC05F0E552FE
:1004C000E76E040EE7CFDBFF050EDB06040EDB5004
:1004D0000EE0050EDBCF13F0000EE76E1318E8AE4A
:1004E00002D0133403D0E750D8801354E3E30A0E4C
:1004F000F36E050EF3CFDBFFFD0EDBCFE6FFFE0E46
:10050000DBCFE6FF21EC04F0E552E552020EF3CF1B
:10051000DBFF030EF4CFDBFF050EDB06030EDB5023
:100520000EE0050EDBCF13F0000EE76E1318E8AEF9
:1005300002D0133403D0E750D8801354DDE3030E08
:10054000DB5002E0DF6806D0020EDB50E76E010EE2
:10055000E7CFDBFF0A0EF36E050EF3CFDBFFFD0ED8
:10056000DB28E66EFE0EDBCFE6FF21EC04F0E55261
:10057000E552020EF3CFDBFF030EF4CFDBFF050ED7
:10058000DB06030EDB500EE0050EDBCF13F0000E92
:10059000E76E1318E8AE02D0133403D0E750D880CA
:1005A0001354DDE3030EDB5003E0010EDB6803D0E0
:1005B000020EDB50DF6EDECF13F0DDCF14F013C080
:1005C000F3FF14C0F4FF00D0060EE15C02E2E16A22
:1005D000E552E16EE552E7CFD9FF1200D9CFE6FF31
:1005E000E1CFD9FF020EE126DF6ADE520A0EDD6E90
:1005F000FE0EDBCFE6FFEFEC05F0E552DF6E010EFD
:10060000DB06DF500EE0010EDBCF13F0000EE76ECD
:100610001318E8AE02D0133403D0E750D880135437
:10062000E7E3DE520A0EDD6EFD0EDBCFE6FFE66A83
:10063000FE0EDBCFE6FFA2EC05F0E552E552E552F7
:10064000DF6E010EDB06DF500EE0010EDBCF13F094
:10065000000EE76E1318E8AE02D0133403D0E75053
:10066000D8801354E1E3020EE15C02E2E16AE55254
:10067000E16EE552E7CFD9FF1200D9CFE6FFE1CF17
:10068000D9FFE652DF6A1F0EC51403E1C750040B01
:1006900001E0F9D7C580C5B0FED7FE0EDB50C96EAC
:1006A000C7B0FED7C5BCFED71F0EC51403E1C750A7
:1006B000040B01E0F9D7DFCF13F0146A13BE1468FE
:1006C000FC0EDB501324E96EFD0EDB501420EA6EA5
:1006D000EF50C96EC7B0FED7C5BCFED7DF50DF2ACA
:1006E000136E146A13BE1468FC0EDB501324E96EFB
:1006F000FD0EDB501420EA6EEF50D6E11F0EC5143C
:1007000003E1C750040B01E0F9D7C584C5B4FED797
:100710009E96000E00D0E552E552E7CFD9FF1200B9
:10072000D9CFE6FFE1CFD9FFE652DF6A1F0EC5142D
:1007300003E1C750040B01E0F9D7C580C5B0FED76F
:10074000FE0EDB28C96EC7B0FED7C5BCFED71F0E94
:10075000C51403E1C750040B01E0F9D7C586C7A053
:10076000FED7DFCF13F0146A13BE1468FC0EDB5003
:100770001324E96EFD0EDB501420EA6EC9CFEFFFA3
:10078000C95002E0C59A01D0C58AC588C5B8FED750
:10079000DF50DF2A136E146A13BE1468FC0EDB50A0
:1007A0001324E96EFD0EDB501420EA6EEF50CFE10A
:1007B0001F0EC51403E1C750040B01E0F9D7C5842F
:1007C000C5B4FED79E96000E00D0E552E552E7CFA5
:1007D000D9FF1200D9CFE6FFE1CFD9FFE652DF6A99
:1007E0001F0EC51403E1C750040B01E0F9D7C58003
:1007F000C5B0FED7FE0EDB50C96EC7B0FED7C5BC74
:10080000FED71F0EC51403E1C750040B01E0F9D752
:10081000FD0EDB50C96EC7B0FED7C5BCFED71F0E9C
:10082000C51403E1C750040B01E0F9D7C584C5B472
:10083000FED79E96DF5000D0E552E552E7CFD9FFB4
:020840001200A4
:0E084200D9CFE6FFDACFE6FFE1CFD9FFE2CF54
:10085000DAFFE8EC06F0C580C5A003D0FDD7C5B02F
:10086000FED7A1B63BD0FD0E57D804E0C584C5B471
:10087000FED71ED0C5BC3DD0FC0E4ED804E0C584CA
:10088000C5B4FED715D0C5BC2FD0C582C5A203D034
:10089000FDD7C5B2FED7A1B621D0FD0EDB28E66E8E
:1008A0006DEC06F0E552000905E0C584C5B4FED73D
:1008B000FD0E23D0C5BC14D0C586C5B6FED7C58AEB
:1008C000C588C5A803D0FDD7C5B8FED7C584C5A4C3
:1008D00003D0FDD7C5B4FED7A1A612D0F3680ED0C1
:1008E000C584C5B4FED703D0C584C5B4FED7FE0EFB
:1008F00004D0C584C5B4FED7FE0EF36EF46806D0EE
:10090000C950136E146AF36E14C0F4FFE552E5CFBC
:10091000DAFFE7CFD9FF1200DBCFE6FF6DEC06F080
:06092000E552000912007F
:0A09260002EC05F0B70EE66E000EBD
:10093000E66E40EC06F0E552E5520D0EE66E31EC47
:1009400006F0E552E66A400EE66EEAEC03F0E55288
:10095000E5520001C0054AE1020EE66E400EE66E69
:10096000EAEC03F0E552E552020E0001C15D14E12C
:10097000030EE66E400EE66EEAEC03F0E552E55239
:100980000001D451320805E2C2C0BEFFC2C0BBFFA5
:1009900002D0BE6ABB6A29D0040EE66E400EE66E37
:1009A000EAEC03F0E552E5520001D451280814E2C4
:1009B0000001D451136E146AD890145004E6960EB8
:1009C000135C000E145808E20001010EC16FC2C092
:1009D000BEFFC2C0BBFF09D00001C10506E1000196
:1009E000020EC16FBE6ABB6A00D00AD0BE6ABB6A83
:1009F000010EE66E400EE66EEAEC03F0E552E552BB
:040A0000A8D7120061
:0C0A04008F0ED3147009D36E939A938068
:100A10008182929C929E30D814D807D81FEC02F0A5
:100A2000F19CF288F28CF28E1200948CB896AC9401
:100A3000AC98B06A190EAF6EAB8EAC8A9D889E984A
:100A40001200939AF00EC1140C09C16ECF0EC1149E
:100A50000009C16EF80EC0140109C06EC70EC014A3
:100A60001809C06EC30EC2140809C26EC09EC280AF
:100A70009E9C9D8CF28C120094929494CA827C0E5F
:100A8000CB6EBE6ABB6ABD98BD9ABA98BA9ABD864B
:100A9000BD84BA86BA84870ECA144809CA6ECA844D
:060AA0009D829F821200FE
:0A0AA6000E0EF66E000EF76E000E45
:100AB000F86E00010900F550C86F0900F550C96FC4
:100AC00003E1C86701D03DD00900F550C36F0900AC
:100AD000F550C46F0900F550C56F09000900F550C5
:100AE000E96E0900F550EA6E090009000900F550A9
:100AF000C66F0900F550C76F09000900F6CFCAF0AC
:100B0000F7CFCBF0F8CFCCF0C3C0F6FFC4C0F7FFEF
:100B1000C5C0F8FF0001C65302E1C75307E0090052
:100B2000F550EE6EC607F8E2C707F9D7CAC0F6FF60
:100B3000CBC0F7FFCCC0F8FF0001C807000EC95BAF
:040B4000BFD7120009
:0C0B4400D9CFE6FFDACFE6FFE1CFD9FF02
:100B5000E2CFDAFFE8EC06F0C580C5A003D0FDD7F0
:100B6000C5B0FED7A1B62BD0FD0E32D804E0C584A7
:100B7000C5B4FED711D0C5BC15D0FC0E29D804E0F1
:100B8000C584C5B4FED708D0C5BC08D0FB0E20D89C
:100B90000EE0C584C5B4FED7FD0E14D0C584C5B41F
:100BA000FED703D0C584C5B4FED7FE0E0BD0C584D6
:100BB000C5A403D0FDD7C5B4FED7A1A602D0FF0EB1
:100BC00001D0000EE552E5CFDAFFE7CFD9FF1200E2
:0E0BD000DBCFE6FF6DEC06F0E55200091200E7
:020BDE00D9CF6D
:100BE000E6FFDACFE6FFE1CFD9FFE2CFDAFFE8ECAC
:100BF00006F0C580C5A003D0FDD7C5B0FED7A1B60D
:100C00001FD027D804E1C584C5B4FED70FD0C5AC2A
:100C10000FD0C582C5A203D0FDD7C5B2FED7A1B6FD
:100C20000FD017D8F4E1C584C5B4FED7FD0E0BD0A4
:100C3000C584C5A403D0FDD7C5B4FED7A1A602D0F4
:100C4000FF0E01D0000EE552E5CFDAFFE7CFD9FF66
:100C50001200FD0EDBCFE6FF6DEC06F0E552FF085B
:020C6000120080
:0E0C6200D9CFE6FFE1CFD9FF9DB8FED7FE0E39
:100C7000DB50AD6E9EA8FED7E552E7CFD9FF12003C
:100C8000D9CFE6FFE1CFD9FF0001D36B0001D351EB
:100C9000E76EFD0EDBCFE9FFFE0EDBCFEAFFE7508C
:100CA000E926000EEA22EF5014E00001D351E76E6E
:100CB000FD0EDBCFE9FFFE0EDBCFEAFFE750E926B2
:100CC000000EEA22EF50E66ECCDFE5520001D32B96
:0A0CD000DDD7E552E7CFD9FF12008F
:060CDA00D9CFE6FFDACFDE
:100CE000E6FFE1CFD9FFE2CFDAFFFD0EDB50C96EA0
:100CF000C6AE02D0FF0E24D00F0EC61408080FE0B7
:100D00000F0EC6140B080BE0C6889EA6FED7C75070
:100D1000040B03E1C750010B10E0000E11D00F0EC1
:100D2000C614080804E00F0EC6140B0809E1C7B08A
:100D3000FED7E8EC06F0C5AC02D0FE0E01D0000EE6
:0C0D4000E552E5CFDAFFE7CFD9FF120043
:040D4C00036A026ACA
:100D5000100EE76ED89006360736023603360B5073
:100D6000025C0C50035805E30B50025E0C50035A12
:080D7000062AE72EF0D712005D
:080D7800000EF36E00EE00F026
:100D8000060E01D81200EA6002D0EE6AFCD7F350DA
:080D9000E9601200EE6AFCD7D5
:080D980015EE00F025EE00F05D
:100DA000F86A0F9C53EC05F003EC00F093EC04F0B0
:040DB000FBD712005B
:0C0DB400036A080EE76ED890073603367D
:100DC0000C50035C02E3036E072AE72EF7D71200EC
:0E0DD0001F0EC514FDE1C750040BFAE112001E
:020DDE00466964
:0A0DE0006E20696E69740000003E89
:060DEA00456E7472657293
:100DF00020766974657373653A2000426174746586
:100E00007269653A20004D6F6465203A2000536F87
:100E10006E6172203A00FFFFFFFFFFFFFFFF00003F
:010E200000D1
:020000040030CA
:0100010008F6
:010003001EDE
:010005008179
:0100060001F8
:00000001FF
