:020000040000FA
:06000000B7EF06F012004C
:020006001200E6
:0600080014EF00F01200ED
:02000E000200EE
:10001000C10D00008000000038000000B40D000099
:08002000B80000000D00000013
:08002800DACFE4FFE2CFDAFFBA
:10003000E9CFE4FFEACFE4FFF6CFE4FFF7CFE4FF38
:10004000F5CFE4FFF3CFE4FFF4CFE4FFFACFE4FF12
:1000500000EE00F0100EE80403E3EECFE4FFFBD760
:1000600000EE13F0020EE80403E3EECFE4FFFBD74B
:10007000E6529EA2A1D09E92640E0001B45D04E1FE
:100080000001B46BC28202D00001B42B0A0E000141
:10009000B65D01E07CD00001C10501E078D000012F
:1000A000B66B020EE66EE00EE66E57EC02F0E5521D
:1000B000E552F3CFD6F0E66AE00EE66EF8EC02F019
:1000C000E552E552510EE66EE00EE66EF8EC02F0F7
:1000D000E552E552A40EE66E000EE66E2BEC06F03D
:1000E000E552E552640E106E10C00CF0D6C007F059
:1000F000C5EC06F00750300FE66E1CEC06F0E5523A
:10010000640E116E11C00CF0D6C007F0C5EC06F0FD
:1001100003C010F00A0E126E12C00CF010C007F0EF
:10012000C5EC06F00750300FE66E1CEC06F0E55209
:100130000A0E106E10C00CF0D6C007F0C5EC06F029
:100140000350300FE66E1CEC06F0E5520D0EE66E25
:100150001CEC06F0E5529C0EE66E000EE66E2BECF3
:1001600006F0E552E5520A0E106E10C00CF0C3C046
:1001700007F0C5EC06F00350300FE66E1CEC06F0FD
:10018000E5520D0EE66E1CEC06F0E55202D00001C1
:10019000B62B0001B75100080FE20001B72B000198
:1001A000B751106E116A113404E21050C808000EE5
:1001B000115402E20001B76B9E50100B04E09D50F9
:1001C000100B01E09D989EACECD09E9CC4CFD1F06A
:1001D0000001B551EA6AAC0FE96E000EEA22D1C007
:1001E000EFFF0001B52B0001070EB5170001CF6B23
:1001F000D06B0001D56B080E0001D55D13E2000144
:10020000D551EA6AAC0FE96E000EEA22EF50106E8B
:10021000116A10500001CF2711500001D0230001B6
:10022000D52BE9D7CFC010F0D0C011F0030ED89075
:1002300011321032E804FBE110C0CFF011C0D0F051
:100240000001960ECF5D000ED05901E28A8A910E10
:10025000E66E000EE66E2BEC06F0E552E552CFC0DE
:1002600010F0D0C011F0640E0B6E0C6A10C006F0D6
:1002700011C007F091EC06F006C010F007C011F0B5
:10028000300E1024E66E1CEC06F0E552CFC010F0E4
:10029000D0C011F0640E0B6E0C6A10C006F011C0D5
:1002A00007F091EC06F002C010F003C011F00A0E46
:1002B0000B6E0C6A10C006F011C007F091EC06F04E
:1002C00006C010F007C011F0300E1024E66E1CECD2
:1002D00006F0E552CFC010F0D0C011F00A0E0B6E40
:1002E0000C6A10C006F011C007F091EC06F002C0D5
:1002F00010F003C011F0300E1024E66E1CEC06F076
:10030000E5523A0EE66E1CEC06F0E5520E0E0001C8
:10031000CF250001CF6F000E0001D0210001D06F6A
:10032000040E0F0B000105E0D890D033CF33E80660
:10033000FBE1CFC010F0D0C011F00A0E0B6E0C6ABA
:1003400010C006F011C007F091EC06F006C010F0E6
:1003500007C011F0300E1024E66E1CEC06F0E552DA
:10036000CFC010F0D0C011F00A0E0B6E0C6A10C096
:1003700006F011C007F091EC06F002C010F003C0C7
:1003800011F0300E1024E66E1CEC06F0E552560E0D
:10039000E66E1CEC06F0E5520D0EE66E1CEC06F067
:1003A000E552F250020B31E00001B7512EE100019D
:1003B000010EB76FF292310EE66EE66AA20EE66E9D
:1003C00047EC03F0E552E552E552A20EE66E31EC41
:1003D00002F0E552000901E0F8D7D20EE66E000EF9
:1003E000E66EA20EE66E9AEC03F0E552E552E55297
:1003F0000001D31D0001C26F0001C15104E10001E1
:10040000010EC16F02D00001C16BE55200EE14F085
:10041000020EE80403E3E5CFEDFFFBD700EE0FF09B
:10042000100EE80403E3E5CFEDFFFBD7E5CFFAFFBD
:10043000E5CFF4FFE5CFF3FFE5CFF5FFE5CFF7FF1D
:10044000E5CFF6FFE5CFEAFFE5CFE9FFE5CFDAFF3D
:02045000110099
:0E045200800EC76E280EC66EC56A130EC86EE9
:100460001200D9CFE6FFE1CFD9FF1F0EC51403E17B
:10047000C750040B01E0F9D7C580C5B0FED7FE0E0A
:10048000DB50C96EC7B0FED7C5BCFED71F0EC51462
:1004900003E1C750040B01E0F9D7C584C5B4FED70A
:1004A0009E96000E00D0E552E7CFD9FF1200D9CFBB
:1004B000E6FFE1CFD9FF060EE126040EDB6A0A0E45
:1004C000F36E050EF3CFDBFFFE0EDBCFE6FFDAECBB
:1004D00005F0E552E76E040EE7CFDBFF050EDB0605
:1004E000040EDB500EE0050EDBCF13F0000EE76EBE
:1004F0001318E8AE02D0133403D0E750D880135459
:10050000E3E30A0EF36E050EF3CFDBFFFD0EDBCF48
:10051000E6FFFE0EDBCFE6FF2BEC04F0E552E552E2
:10052000020EF3CFDBFF030EF4CFDBFF050EDB067D
:10053000030EDB500EE0050EDBCF13F0000EE76E6E
:100540001318E8AE02D0133403D0E750D880135408
:10055000DDE3030EDB5002E0DF6806D0020EDB5065
:10056000E76E010EE7CFDBFF0A0EF36E050EF3CF49
:10057000DBFFFD0EDB28E66EFE0EDBCFE6FF2BEC8D
:1005800004F0E552E552020EF3CFDBFF030EF4CF89
:10059000DBFF050EDB06030EDB500EE0050EDBCFA6
:1005A00013F0000EE76E1318E8AE02D0133403D038
:1005B000E750D8801354DDE3030EDB5003E0010E57
:1005C000DB6803D0020EDB50DF6EDECF13F0DDCF31
:1005D00014F013C0F3FF14C0F4FF00D0060EE15C6A
:1005E00002E2E16AE552E16EE552E7CFD9FF12007F
:1005F000D9CFE6FFE1CFD9FF020EE126DF6ADE5256
:100600000A0EDD6EFE0EDBCFE6FFDAEC05F0E552FA
:10061000DF6E010EDB06DF500EE0010EDBCF13F0C4
:10062000000EE76E1318E8AE02D0133403D0E75083
:10063000D8801354E7E3DE520A0EDD6EFD0EDBCFE9
:10064000E6FFE66AFE0EDBCFE6FF8DEC05F0E55235
:10065000E552E552DF6E010EDB06DF500EE0010EC3
:10066000DBCF13F0000EE76E1318E8AE02D01334A0
:1006700003D0E750D8801354E1E3020EE15C02E2BC
:10068000E16AE552E16EE552E7CFD9FF1200D9CF1A
:10069000E6FFE1CFD9FFE652DF6A1F0EC51403E182
:1006A000C750040B01E0F9D7C580C5B0FED7FE0ED8
:1006B000DB50C96EC7B0FED7C5BCFED71F0EC51430
:1006C00003E1C750040B01E0F9D7DFCF13F0146A40
:1006D00013BE1468FC0EDB501324E96EFD0EDB50D4
:1006E0001420EA6EEF50C96EC7B0FED7C5BCFED766
:1006F000DF50DF2A136E146A13BE1468FC0EDB5041
:100700001324E96EFD0EDB501420EA6EEF50D6E1A3
:100710001F0EC51403E1C750040B01E0F9D7C584CF
:10072000C5B4FED79E96000E00D0E552E552E7CF45
:10073000D9FF1200D9CFE6FFE1CFD9FFE652DF6A39
:100740001F0EC51403E1C750040B01E0F9D7C580A3
:10075000C5B0FED7FE0EDB28C96EC7B0FED7C5BC3C
:10076000FED71F0EC51403E1C750040B01E0F9D7F3
:10077000C586C7A0FED7DFCF13F0146A13BE146876
:10078000FC0EDB501324E96EFD0EDB501420EA6EE4
:10079000C9CFEFFFC95002E0C59A01D0C58AC5880C
:1007A000C5B8FED7DF50DF2A136E146A13BE146873
:1007B000FC0EDB501324E96EFD0EDB501420EA6EB4
:1007C000EF50CFE11F0EC51403E1C750040B01E049
:1007D000F9D7C584C5B4FED79E96000E00D0E55269
:1007E000E552E7CFD9FF1200D9CFE6FFE1CFD9FF1D
:1007F000E652DF6A1F0EC51403E1C750040B01E087
:10080000F9D7C580C5B0FED7FE0EDB50C96EC7B0A4
:10081000FED7C5BCFED71F0EC51403E1C750040B9D
:1008200001E0F9D7FD0EDB50C96EC7B0FED7C5BCDD
:10083000FED71F0EC51403E1C750040B01E0F9D722
:10084000C584C5B4FED79E96DF5000D0E552E55270
:06085000E7CFD9FF120002
:0A085600D9CFE6FFDACFE6FFE1CFCD
:10086000D9FFE2CFDAFFD3EC06F0C580C5A003D0F4
:10087000FDD7C5B0FED7A1B63BD0FD0E57D804E0DA
:10088000C584C5B4FED71ED0C5BC3DD0FC0E4ED825
:1008900004E0C584C5B4FED715D0C5BC2FD0C58231
:1008A000C5A203D0FDD7C5B2FED7A1B621D0FD0E9B
:1008B000DB28E66E58EC06F0E552000905E0C58439
:1008C000C5B4FED7FD0E23D0C5BC14D0C586C5B6B1
:1008D000FED7C58AC588C5A803D0FDD7C5B8FED741
:1008E000C584C5A403D0FDD7C5B4FED7A1A612D038
:1008F000F3680ED0C584C5B4FED703D0C584C5B493
:10090000FED7FE0E04D0C584C5B4FED7FE0EF36E2E
:10091000F46806D0C950136E146AF36E14C0F4FF65
:10092000E552E5CFDAFFE7CFD9FF1200DBCFE6FFD4
:0A09300058EC06F0E5520009120031
:06093A008F0ED3147009BA
:10094000D36E939A93808182929C929E30D814D8D1
:1009500007D829EC02F0F19CF288F28CF28E12009A
:10096000948CB896AC94AC98B06A190EAF6EAB8EFE
:10097000AC8A9D889E981200939AF00EC1140C09BF
:10098000C16ECF0EC1140009C16EF80EC01401096A
:10099000C06EC70EC0141809C06EC30EC214080979
:1009A000C26EC09EC2809E9C9D8CF28C120094925E
:1009B0009494CA827C0ECB6EBE6ABB6ABD98BD9A07
:1009C000BA98BA9ABD86BD84BA86BA84870ECA140C
:0C09D0004809CA6ECA849D829F821200F2
:0409DC009DEC04F09A
:1009E000B80EE66E000EE66E2BEC06F0E552E55210
:1009F0000D0EE66E1CEC06F0E552C2C0E6FF400E9E
:100A0000E66EF4EC03F0E552E5520001C10532E177
:100A1000020E0001C35D0CE10001D651320805E26F
:100A2000C4C0BEFFC4C0BBFF02D0BE6ABB6A21D037
:100A30000001D651280814E20001D651136E146A41
:100A4000D890145004E6960E135C000E145808E279
:100A50000001010EC36FC4C0BEFFC4C0BBFF09D0FC
:100A60000001C30506E10001020EC36FBE6ABB6A46
:0C0A700000D002D0BE6ABB6AC0D71200E2
:040A7C000E0EF66EF6
:100A8000000EF76E000EF86E00010900F550CA6FF7
:100A90000900F550CB6F03E1CA6701D03DD00900D2
:100AA000F550C56F0900F550C66F0900F550C76FC6
:100AB00009000900F550E96E0900F550EA6E0900D9
:100AC00009000900F550C86F0900F550C96F090009
:100AD0000900F6CFCCF0F7CFCDF0F8CFCEF0C5C0FF
:100AE000F6FFC6C0F7FFC7C0F8FF0001C85302E118
:100AF000C95307E00900F550EE6EC807F8E2C907D0
:100B0000F9D7CCC0F6FFCDC0F7FFCEC0F8FF00018B
:0A0B1000CA07000ECB5BBFD712002E
:060B1A00D9CFE6FFDACF9F
:100B2000E6FFE1CFD9FFE2CFDAFFD3EC06F0C580D4
:100B3000C5A003D0FDD7C5B0FED7A1B62BD0FD0E02
:100B400032D804E0C584C5B4FED711D0C5BC15D0D9
:100B5000FC0E29D804E0C584C5B4FED708D0C5BCB6
:100B600008D0FB0E20D80EE0C584C5B4FED7FD0E1C
:100B700014D0C584C5B4FED703D0C584C5B4FED790
:100B8000FE0E0BD0C584C5A403D0FDD7C5B4FED7D7
:100B9000A1A602D0FF0E01D0000EE552E5CFDAFF8C
:100BA000E7CFD9FF1200DBCFE6FF58EC06F0E552A5
:040BB0000009120026
:0C0BB400D9CFE6FFDACFE6FFE1CFD9FF92
:100BC000E2CFDAFFD3EC06F0C580C5A003D0FDD795
:100BD000C5B0FED7A1B61FD027D804E1C584C5B4DF
:100BE000FED70FD0C5AC0FD0C582C5A203D0FDD7AC
:100BF000C5B2FED7A1B60FD017D8F4E1C584C5B4ED
:100C0000FED7FD0E0BD0C584C5A403D0FDD7C5B457
:100C1000FED7A1A602D0FF0E01D0000EE552E5CF0F
:100C2000DAFFE7CFD9FF1200FD0EDBCFE6FF58EC6D
:080C300006F0E552FF08120076
:080C3800D9CFE6FFE1CFD9FF9F
:100C40009DB8FED7FE0EDB50AD6E9EA8FED7E552D6
:100C5000E7CFD9FF1200D9CFE6FFE1CFD9FF0001DE
:100C6000D56B0001D551E76EFD0EDBCFE9FFFE0E1F
:100C7000DBCFEAFFE750E926000EEA22EF5014E04E
:100C80000001D551E76EFD0EDBCFE9FFFE0EDBCF95
:100C9000EAFFE750E926000EEA22EF50E66ECCDFCD
:100CA000E5520001D52BDDD7E552E7CFD9FF120081
:100CB000D9CFE6FFDACFE6FFE1CFD9FFE2CFDAFF07
:100CC000FD0EDB50C96EC6AE02D0FF0E24D00F0E53
:100CD000C61408080FE00F0EC6140B080BE0C688F8
:100CE0009EA6FED7C750040B03E1C750010B10E0CE
:100CF000000E11D00F0EC614080804E00F0EC61423
:100D00000B0809E1C7B0FED7D3EC06F0C5AC02D0A2
:100D1000FE0E01D0000EE552E5CFDAFFE7CFD9FF96
:020D20001200BF
:0E0D2200036A026A100EE76ED8900636073696
:100D3000023603360B50025C0C50035805E30B508F
:0E0D4000025E0C50035A062AE72EF0D712006E
:020D4E00000E95
:100D5000F36E00EE00F0060E01D81200EA6002D039
:0E0D6000EE6AFCD7F350E9601200EE6AFCD791
:020D6E0015EE80
:100D700000F025EE00F0F86A0F9C3EEC05F003EC65
:0A0D800000F0EEEC04F0FBD71200C7
:060D8A00036A080EE76E8B
:100D9000D890073603360C50035C02E3036E072A33
:060DA000E72EF7D7120058
:0A0DA6001F0EC514FDE1C750040B39
:040DB000FAE1120052
:0C0DB40046696E20696E69740000000042
:010DC0003EF4
:0F0DC100456E7472657220766974657373653A56
:100DD000200042617474657269653A20004D6F6449
:100DE00065203A2000536F6E6172203A00FFFFFFCA
:090DF000FFFFFFFFFF00000000FF
:020000040030CA
:0100010008F6
:010003001EDE
:010005008179
:0100060001F8
:00000001FF
