:020000040000FA
:0600000044EF04F01200C1
:020006001200E6
:0600080000EF02F01200FF
:02000E000100EF
:0C001000D4080000800000001400000074
:04001C00800EC76E1D
:10002000280EC66EC56A130EC86E1200D9CFE6FF41
:10003000E1CFD9FF1F0EC514FDE1C750040BFAE153
:10004000C580C5B0FED7FE0EDB50C96EC7B0FED767
:10005000C5BCFED71F0EC514FDE1C750040BFAE165
:10006000C584C5B4FED79E96000EE552E7CFD9FFF2
:100070001200D9CFE6FFE1CFD9FF060EE126040E2C
:10008000DB6A0A0EF36E050EF3CFDBFFFE0EDBCF4D
:10009000E6FF97EC03F0E552E76E040EE7CFDBFFD7
:1000A000050EDB06040EDB500EE0050EDBCF02F082
:1000B000000EE76E0218E8AE02D0023403D0E7501B
:1000C000D8800254E3E30A0EF36E050EF3CFDBFF94
:1000D000FD0EDBCFE6FFFE0EDBCFE6FF89EC02F084
:1000E000E552E552020EF3CFDBFF030EF4CFDBFF48
:1000F000050EDB06030EDB500EE0050EDBCF02F033
:10010000000EE76E0218E8AE02D0023403D0E750CA
:10011000D8800254DDE3030EDB5002E0DF6806D036
:10012000020EDB50E76E010EE7CFDBFF0A0EF36E27
:10013000050EF3CFDBFFFD0EDB28E66EFE0EDBCFF8
:10014000E6FF89EC02F0E552E552020EF3CFDBFF49
:10015000030EF4CFDBFF050EDB06030EDB500EE0D3
:10016000050EDBCF02F0000EE76E0218E8AE02D0FB
:10017000023403D0E750D8800254DDE3030EDB5095
:1001800003E0010EDB6803D0020EDB50DF6EDECF32
:1001900002F0DDCF03F002C0F3FF03C0F4FF060E50
:1001A000E15C02E2E16AE552E16EE552E7CFD9FF98
:1001B0001200D9CFE6FFE1CFD9FF020EE126DF6AB8
:1001C000DE520A0EDD6EFE0EDBCFE6FF97EC03F08B
:1001D000E552DF6E010EDB06DF500EE0010EDBCFD5
:1001E00002F0000EE76E0218E8AE02D0023403D02F
:1001F000E750D8800254E7E3DE520A0EDD6EFD0EB2
:10020000DBCFE6FFE66AFE0EDBCFE6FF4AEC03F04B
:10021000E552E552E552DF6E010EDB06DF500EE0DF
:10022000010EDBCF02F0000EE76E0218E8AE02D03E
:10023000023403D0E750D8800254E1E3020EE15CBF
:1002400002E2E16AE552E16EE552E7CFD9FF120022
:10025000D9CFE6FFE1CFD9FFE652DF6A1F0EC51402
:10026000FDE1C750040BFAE1C580C5B0FED7FE0E14
:10027000DB50C96EC7B0FED7C5BCFED71F0EC51474
:10028000FDE1C750040BFAE1DFCF02F0036A02BEC2
:100290000368FC0EDB500224E96EFD0EDB500320E8
:1002A000EA6EEF50C96EC7B0FED7C5BCFED7DF50AF
:1002B000DF2A026E036A02BE0368FC0EDB500224D2
:1002C000E96EFD0EDB500320EA6EEF50D7E11F0E02
:1002D000C514FDE1C750040BFAE1C584C5B4FED7CF
:1002E0009E96000EE552E552E7CFD9FF1200D9CF16
:1002F000E6FFE1CFD9FFE652DF6A1F0EC514FDE12C
:10030000C750040BFAE1C580C5B0FED7FE0EDB284E
:10031000C96EC7B0FED7C5BCFED71F0EC514FDE120
:10032000C750040BFAE1C586C7A0FED7DFCF02F0A5
:10033000036A02BE0368FC0EDB500224E96EFD0E68
:10034000DB500320EA6EC9CFEFFFC95002E0C59A27
:1003500001D0C58AC588C5B8FED7DF50DF2A026E36
:10036000036A02BE0368FC0EDB500224E96EFD0E38
:10037000DB500320EA6EEF50D0E11F0EC514FDE103
:10038000C750040BFAE1C584C5B4FED79E96000E93
:10039000E552E552E7CFD9FF1200D9CFE6FFE1CF12
:1003A000D9FFE652DF6A1F0EC514FDE1C750040BEA
:1003B000FAE1C580C5B0FED7FE0EDB50C96EC7B0EE
:1003C000FED7C5BCFED71F0EC514FDE1C750040BF8
:1003D000FAE1FD0EDB50C96EC7B0FED7C5BCFED733
:1003E0001F0EC514FDE1C750040BFAE1C584C5B466
:1003F000FED79E96DF50E552E552E7CFD9FF1200B7
:10040000DACFE4FFE6529EA209D09E92640E00016C
:10041000925D03E18A7A926B01D0922B9E50100B71
:1004200004E09D50100B01E09D98E552E5CFDAFF06
:100430001100D9CFE6FFE1CFD9FF9DB8FED7FE0E60
:10044000DB50AD6E9EA8FED7E552E7CFD9FF120074
:10045000D9CFE6FFE1CFD9FF00019E6B9E51E76E39
:10046000FD0EDBCFE9FFFE0EDBCFEAFFE750E9260A
:10047000000EEA22EF5013E09E51E76EFD0EDBCF37
:10048000E9FFFE0EDBCFEAFFE750E926000EEA2285
:10049000EF50E66ECEDFE55200019E2BDFD7E5522E
:1004A000E7CFD9FF12008F0ED3147009D36ECA8222
:1004B0007C0ECB6E3E0EBE6EBB6ECF0EBD14000921
:1004C000BD6ECF0EBA140009BA6EB896AC94AC9853
:1004D000B06A190EAF6E94949492948CF00EBD1481
:1004E0000C09BD6EF00EBA140C09BA6E870ECA1450
:1004F0004809CA6ECA84AB8EAC8A9D829F829D8851
:100500009E98F28CF28EC80EE66E080EE66EA0DFA4
:02051000FFD713
:0E051200D9CFE6FFDACFE6FFE1CFD9FFE2CF87
:10052000DAFF5DEC04F0C580C5A003D0FDD7C5B0EF
:10053000FED7A1B63BD0FD0E57D804E0C584C5B4A4
:10054000FED71ED0C5BC3DD0FC0E4ED804E0C584FD
:10055000C5B4FED715D0C5BC2FD0C582C5A203D067
:10056000FDD7C5B2FED7A1B621D0FD0EDB28E66EC1
:10057000D9EC03F0E552000905E0C584C5B4FED707
:10058000FD0E23D0C5BC14D0C586C5B6FED7C58A1E
:10059000C588C5A803D0FDD7C5B8FED7C584C5A4F6
:1005A00003D0FDD7C5B4FED7A1A612D0F3680ED0F4
:1005B000C584C5B4FED703D0C584C5B4FED7FE0E2E
:1005C00004D0C584C5B4FED7FE0EF36EF46806D021
:1005D000C950026E036AF36E03C0F4FFE552E5CF23
:1005E000DAFFE7CFD9FF1200DBCFE6FFD9EC03F04B
:0605F000E55200091200B3
:0A05F6000E0EF66E000EF76E000EFA
:10060000F86E00010900F550996F0900F5509A6FD6
:1006100003E1996701D03DD00900F550946F0900BE
:10062000F550956F0900F550966F09000900F550D7
:10063000E96E0900F550EA6E090009000900F5505D
:10064000976F0900F550986F09000900F6CF9BF0ED
:10065000F7CF9CF0F8CF9DF094C0F6FF95C0F7FF60
:1006600096C0F8FF0001975302E1985307E0090094
:10067000F550EE6E9707F8E29807F9D79BC0F6FFA2
:100680009CC0F7FF9DC0F8FF00019907000E9A5B20
:04069000BFD71200BE
:0C069400D9CFE6FFDACFE6FFE1CFD9FFB7
:1006A000E2CFDAFF5DEC04F0C580C5A003D0FDD732
:1006B000C5B0FED7A1B62BD0FD0E32D804E0C5845C
:1006C000C5B4FED711D0C5BC15D0FC0E29D804E0A6
:1006D000C584C5B4FED708D0C5BC08D0FB0E20D851
:1006E0000EE0C584C5B4FED7FD0E14D0C584C5B4D4
:1006F000FED703D0C584C5B4FED7FE0E0BD0C5848B
:10070000C5A403D0FDD7C5B4FED7A1A602D0FF0E65
:1007100001D0000EE552E5CFDAFFE7CFD9FF120096
:0E072000DBCFE6FFD9EC03F0E5520009120032
:02072E00D9CF21
:10073000E6FFDACFE6FFE1CFD9FFE2CFDAFF5DECEB
:1007400004F0C580C5A003D0FDD7C5B0FED7A1B6C3
:100750001FD027D804E1C584C5B4FED70FD0C5ACDF
:100760000FD0C582C5A203D0FDD7C5B2FED7A1B6B2
:100770000FD017D8F4E1C584C5B4FED7FD0E0BD059
:10078000C584C5A403D0FDD7C5B4FED7A1A602D0A9
:10079000FF0E01D0000EE552E5CFDAFFE7CFD9FF1B
:1007A0001200FD0EDBCFE6FFD9EC03F0E552FF08A7
:0207B000120035
:0E07B200D9CFE6FFDACFE6FFE1CFD9FFE2CFE5
:1007C000DAFFFD0EDB50C96EC6AE02D0FF0E24D09C
:1007D0000F0EC61408080FE00F0EC6140B080BE02E
:1007E000C6889EA6FED7C750040B03E1C750010B75
:1007F00010E0000E11D00F0EC614080804E00F0E12
:10080000C6140B0809E1C7B0FED75DEC04F0C5AC17
:1008100002D0FE0E01D0000EE552E5CFDAFFE7CFA1
:04082000D9FF1200EA
:0C082400D9CFE6FFE1CFD9FFE652DF6A32
:10083000E552E552E7CFD9FF12008F0ED3147009AD
:10084000D36E120094929494CA827C0ECB6E320EB8
:10085000BE6EBB6EBD98BD9ABA98BA9ABD86BD846D
:08086000BA86BA84CA841200B2
:08086800000EF36E00EE00F03B
:10087000060E01D81200EA6002D0EE6AFCD7F350EF
:08088000E9601200EE6AFCD7EA
:0808880015EE00F025EE00F072
:10089000F86A019CFBEC02F003EC00F053EC02F070
:0408A000FBD7120070
:0C08A400D9CFE6FFE1CFD9FFE652DF6AB2
:0A08B000E552E552E7CFD9FF120030
:0608BA001F0EC514FDE154
:0808C000C750040BFAE112001D
:0808C80048656C6C6F20576F4E
:0408D000726C6400E2
:0C08D400456E747265722076697465735D
:0808E00073653A2000000000DE
:00000001FF
